{
  "_format": "hh-sol-artifact-1",
  "contractName": "OPP",
  "sourceName": "contracts/outpost/OPP.sol",
  "abi": [
    {
      "inputs": [
        {
          "internalType": "address",
          "name": "authority",
          "type": "address"
        }
      ],
      "name": "AccessManagedInvalidAuthority",
      "type": "error"
    },
    {
      "inputs": [
        {
          "internalType": "address",
          "name": "caller",
          "type": "address"
        },
        {
          "internalType": "uint32",
          "name": "delay",
          "type": "uint32"
        }
      ],
      "name": "AccessManagedRequiredDelay",
      "type": "error"
    },
    {
      "inputs": [
        {
          "internalType": "address",
          "name": "caller",
          "type": "address"
        }
      ],
      "name": "AccessManagedUnauthorized",
      "type": "error"
    },
    {
      "inputs": [
        {
          "internalType": "address",
          "name": "target",
          "type": "address"
        }
      ],
      "name": "AddressEmptyCode",
      "type": "error"
    },
    {
      "inputs": [
        {
          "internalType": "address",
          "name": "implementation",
          "type": "address"
        }
      ],
      "name": "ERC1967InvalidImplementation",
      "type": "error"
    },
    {
      "inputs": [],
      "name": "ERC1967NonPayable",
      "type": "error"
    },
    {
      "inputs": [],
      "name": "FailedCall",
      "type": "error"
    },
    {
      "inputs": [],
      "name": "InvalidInitialization",
      "type": "error"
    },
    {
      "inputs": [],
      "name": "NotInitializing",
      "type": "error"
    },
    {
      "inputs": [
        {
          "internalType": "uint256",
          "name": "actualBytes",
          "type": "uint256"
        },
        {
          "internalType": "uint256",
          "name": "maxBytes",
          "type": "uint256"
        }
      ],
      "name": "OPP_EnvelopeOverCap",
      "type": "error"
    },
    {
      "inputs": [
        {
          "internalType": "bytes32",
          "name": "expected",
          "type": "bytes32"
        },
        {
          "internalType": "bytes32",
          "name": "actual",
          "type": "bytes32"
        }
      ],
      "name": "OPP_EpochHashMismatch",
      "type": "error"
    },
    {
      "inputs": [
        {
          "internalType": "uint32",
          "name": "epochIndex",
          "type": "uint32"
        }
      ],
      "name": "OPP_InboundEnvelopeRecordMissing",
      "type": "error"
    },
    {
      "inputs": [
        {
          "internalType": "uint32",
          "name": "epochIndex",
          "type": "uint32"
        },
        {
          "internalType": "uint32",
          "name": "evictBoundary",
          "type": "uint32"
        }
      ],
      "name": "OPP_InboundEnvelopeStillInRetention",
      "type": "error"
    },
    {
      "inputs": [
        {
          "internalType": "uint256",
          "name": "required",
          "type": "uint256"
        },
        {
          "internalType": "uint256",
          "name": "provided",
          "type": "uint256"
        }
      ],
      "name": "OPP_InsufficientSignatureWeight",
      "type": "error"
    },
    {
      "inputs": [
        {
          "internalType": "address",
          "name": "caller",
          "type": "address"
        },
        {
          "internalType": "address",
          "name": "expected",
          "type": "address"
        }
      ],
      "name": "OPP_InvalidOPPAddress",
      "type": "error"
    },
    {
      "inputs": [],
      "name": "OPP_InvalidRetentionConfig",
      "type": "error"
    },
    {
      "inputs": [
        {
          "internalType": "bytes",
          "name": "expected",
          "type": "bytes"
        },
        {
          "internalType": "bytes",
          "name": "actual",
          "type": "bytes"
        }
      ],
      "name": "OPP_MessageIDMismatch",
      "type": "error"
    },
    {
      "inputs": [],
      "name": "OPP_NoAttestationsSent",
      "type": "error"
    },
    {
      "inputs": [],
      "name": "OPP_NoPendingAttestations",
      "type": "error"
    },
    {
      "inputs": [
        {
          "internalType": "bytes",
          "name": "previousEnvelopeHash",
          "type": "bytes"
        }
      ],
      "name": "OPP_NonCanonicalPreviousEpochHash",
      "type": "error"
    },
    {
      "inputs": [
        {
          "internalType": "uint32",
          "name": "expected",
          "type": "uint32"
        },
        {
          "internalType": "uint32",
          "name": "actual",
          "type": "uint32"
        }
      ],
      "name": "OPP_NonSequentialEpoch",
      "type": "error"
    },
    {
      "inputs": [
        {
          "internalType": "address",
          "name": "caller",
          "type": "address"
        }
      ],
      "name": "OPP_NotActiveOperator",
      "type": "error"
    },
    {
      "inputs": [],
      "name": "OPP_NotSending",
      "type": "error"
    },
    {
      "inputs": [],
      "name": "OPP_OPPAddressNotSet",
      "type": "error"
    },
    {
      "inputs": [
        {
          "internalType": "uint32",
          "name": "epochIndex",
          "type": "uint32"
        },
        {
          "internalType": "address",
          "name": "caller",
          "type": "address"
        }
      ],
      "name": "OPP_OperatorAlreadyDelivered",
      "type": "error"
    },
    {
      "inputs": [
        {
          "internalType": "bytes32",
          "name": "expected",
          "type": "bytes32"
        },
        {
          "internalType": "bytes32",
          "name": "actual",
          "type": "bytes32"
        }
      ],
      "name": "OPP_PayloadChecksumMismatch",
      "type": "error"
    },
    {
      "inputs": [
        {
          "internalType": "uint256",
          "name": "stack",
          "type": "uint256"
        }
      ],
      "name": "OPP_SendStackError",
      "type": "error"
    },
    {
      "inputs": [
        {
          "internalType": "address",
          "name": "sender",
          "type": "address"
        },
        {
          "internalType": "AttestationType",
          "name": "attestationType",
          "type": "uint16"
        }
      ],
      "name": "OPP_UnauthorizedAttestationType",
      "type": "error"
    },
    {
      "inputs": [
        {
          "internalType": "AttestationType",
          "name": "attestationType",
          "type": "uint16"
        }
      ],
      "name": "OPP_UnhandledAttestationType",
      "type": "error"
    },
    {
      "inputs": [
        {
          "internalType": "uint256",
          "name": "expectedChainId",
          "type": "uint256"
        },
        {
          "internalType": "ChainKind",
          "name": "actualKind",
          "type": "uint8"
        },
        {
          "internalType": "uint32",
          "name": "actualId",
          "type": "uint32"
        }
      ],
      "name": "OPP_WrongDestinationChain",
      "type": "error"
    },
    {
      "inputs": [],
      "name": "OPP_ZeroTag",
      "type": "error"
    },
    {
      "inputs": [],
      "name": "UUPSUnauthorizedCallContext",
      "type": "error"
    },
    {
      "inputs": [
        {
          "internalType": "bytes32",
          "name": "slot",
          "type": "bytes32"
        }
      ],
      "name": "UUPSUnsupportedProxiableUUID",
      "type": "error"
    },
    {
      "anonymous": false,
      "inputs": [
        {
          "indexed": false,
          "internalType": "address",
          "name": "authority",
          "type": "address"
        }
      ],
      "name": "AuthorityUpdated",
      "type": "event"
    },
    {
      "anonymous": false,
      "inputs": [
        {
          "indexed": false,
          "internalType": "uint64",
          "name": "version",
          "type": "uint64"
        }
      ],
      "name": "Initialized",
      "type": "event"
    },
    {
      "anonymous": false,
      "inputs": [
        {
          "indexed": false,
          "internalType": "bytes",
          "name": "data",
          "type": "bytes"
        }
      ],
      "name": "OPPEnvelope",
      "type": "event"
    },
    {
      "anonymous": false,
      "inputs": [
        {
          "indexed": true,
          "internalType": "address",
          "name": "implementation",
          "type": "address"
        }
      ],
      "name": "Upgraded",
      "type": "event"
    },
    {
      "inputs": [],
      "name": "MAX_ENVELOPE_BYTES",
      "outputs": [
        {
          "internalType": "uint256",
          "name": "",
          "type": "uint256"
        }
      ],
      "stateMutability": "view",
      "type": "function"
    },
    {
      "inputs": [],
      "name": "UPGRADE_INTERFACE_VERSION",
      "outputs": [
        {
          "internalType": "string",
          "name": "",
          "type": "string"
        }
      ],
      "stateMutability": "view",
      "type": "function"
    },
    {
      "inputs": [
        {
          "internalType": "AttestationType",
          "name": "attestationType",
          "type": "uint16"
        },
        {
          "internalType": "bytes",
          "name": "data",
          "type": "bytes"
        }
      ],
      "name": "addAttestation",
      "outputs": [],
      "stateMutability": "nonpayable",
      "type": "function"
    },
    {
      "inputs": [
        {
          "internalType": "uint256",
          "name": "",
          "type": "uint256"
        }
      ],
      "name": "allAuthorizedSenders",
      "outputs": [
        {
          "internalType": "address",
          "name": "",
          "type": "address"
        }
      ],
      "stateMutability": "view",
      "type": "function"
    },
    {
      "inputs": [],
      "name": "authority",
      "outputs": [
        {
          "internalType": "address",
          "name": "",
          "type": "address"
        }
      ],
      "stateMutability": "view",
      "type": "function"
    },
    {
      "inputs": [
        {
          "internalType": "bytes32",
          "name": "",
          "type": "bytes32"
        }
      ],
      "name": "authorizedSenders",
      "outputs": [
        {
          "internalType": "bool",
          "name": "",
          "type": "bool"
        }
      ],
      "stateMutability": "view",
      "type": "function"
    },
    {
      "inputs": [
        {
          "internalType": "uint32",
          "name": "wireEpochIndex",
          "type": "uint32"
        }
      ],
      "name": "emitOutboundEnvelope",
      "outputs": [],
      "stateMutability": "nonpayable",
      "type": "function"
    },
    {
      "inputs": [
        {
          "internalType": "uint256",
          "name": "tag",
          "type": "uint256"
        }
      ],
      "name": "enterSendMode",
      "outputs": [],
      "stateMutability": "nonpayable",
      "type": "function"
    },
    {
      "inputs": [
        {
          "internalType": "uint256",
          "name": "tag",
          "type": "uint256"
        }
      ],
      "name": "exitSendMode",
      "outputs": [],
      "stateMutability": "nonpayable",
      "type": "function"
    },
    {
      "inputs": [],
      "name": "getLatestOutboundEnvelope",
      "outputs": [
        {
          "internalType": "uint32",
          "name": "epoch_",
          "type": "uint32"
        },
        {
          "internalType": "bytes",
          "name": "data_",
          "type": "bytes"
        }
      ],
      "stateMutability": "view",
      "type": "function"
    },
    {
      "inputs": [
        {
          "internalType": "uint32",
          "name": "epochIndex_",
          "type": "uint32"
        }
      ],
      "name": "getOutboundEnvelope",
      "outputs": [
        {
          "components": [
            {
              "internalType": "uint32",
              "name": "epochIndex",
              "type": "uint32"
            },
            {
              "internalType": "uint64",
              "name": "emittedAt",
              "type": "uint64"
            },
            {
              "internalType": "bytes32",
              "name": "checksum",
              "type": "bytes32"
            }
          ],
          "internalType": "struct OPPEnvelopeRetention.EnvelopeRecord",
          "name": "",
          "type": "tuple"
        }
      ],
      "stateMutability": "view",
      "type": "function"
    },
    {
      "inputs": [],
      "name": "inSendMode",
      "outputs": [
        {
          "internalType": "bool",
          "name": "",
          "type": "bool"
        }
      ],
      "stateMutability": "view",
      "type": "function"
    },
    {
      "inputs": [
        {
          "internalType": "address",
          "name": "_authority",
          "type": "address"
        }
      ],
      "name": "initialize",
      "outputs": [],
      "stateMutability": "nonpayable",
      "type": "function"
    },
    {
      "inputs": [],
      "name": "isConsumingScheduledOp",
      "outputs": [
        {
          "internalType": "bytes4",
          "name": "",
          "type": "bytes4"
        }
      ],
      "stateMutability": "view",
      "type": "function"
    },
    {
      "inputs": [],
      "name": "lastMessageID",
      "outputs": [
        {
          "internalType": "bytes32",
          "name": "",
          "type": "bytes32"
        }
      ],
      "stateMutability": "view",
      "type": "function"
    },
    {
      "inputs": [],
      "name": "lastMessageTimestamp",
      "outputs": [
        {
          "internalType": "uint64",
          "name": "",
          "type": "uint64"
        }
      ],
      "stateMutability": "view",
      "type": "function"
    },
    {
      "inputs": [],
      "name": "latestOutboundEnvelope",
      "outputs": [
        {
          "internalType": "bytes",
          "name": "",
          "type": "bytes"
        }
      ],
      "stateMutability": "view",
      "type": "function"
    },
    {
      "inputs": [],
      "name": "latestOutboundEpoch",
      "outputs": [
        {
          "internalType": "uint32",
          "name": "",
          "type": "uint32"
        }
      ],
      "stateMutability": "view",
      "type": "function"
    },
    {
      "inputs": [
        {
          "internalType": "uint32",
          "name": "",
          "type": "uint32"
        }
      ],
      "name": "outboundEnvelopes",
      "outputs": [
        {
          "internalType": "uint32",
          "name": "epochIndex",
          "type": "uint32"
        },
        {
          "internalType": "uint64",
          "name": "emittedAt",
          "type": "uint64"
        },
        {
          "internalType": "bytes32",
          "name": "checksum",
          "type": "bytes32"
        }
      ],
      "stateMutability": "view",
      "type": "function"
    },
    {
      "inputs": [],
      "name": "outboundRetentionConfig",
      "outputs": [
        {
          "internalType": "uint32",
          "name": "retentionEpochs",
          "type": "uint32"
        }
      ],
      "stateMutability": "view",
      "type": "function"
    },
    {
      "inputs": [],
      "name": "pendingAttestationCount",
      "outputs": [
        {
          "internalType": "uint256",
          "name": "",
          "type": "uint256"
        }
      ],
      "stateMutability": "view",
      "type": "function"
    },
    {
      "inputs": [],
      "name": "proxiableUUID",
      "outputs": [
        {
          "internalType": "bytes32",
          "name": "",
          "type": "bytes32"
        }
      ],
      "stateMutability": "view",
      "type": "function"
    },
    {
      "inputs": [
        {
          "internalType": "uint32",
          "name": "epochIndex_",
          "type": "uint32"
        }
      ],
      "name": "pruneOutboundEnvelope",
      "outputs": [],
      "stateMutability": "nonpayable",
      "type": "function"
    },
    {
      "inputs": [],
      "name": "queuedMessageCount",
      "outputs": [
        {
          "internalType": "uint256",
          "name": "",
          "type": "uint256"
        }
      ],
      "stateMutability": "view",
      "type": "function"
    },
    {
      "inputs": [],
      "name": "sendModeTag",
      "outputs": [
        {
          "internalType": "uint256",
          "name": "",
          "type": "uint256"
        }
      ],
      "stateMutability": "view",
      "type": "function"
    },
    {
      "inputs": [
        {
          "components": [
            {
              "components": [
                {
                  "components": [
                    {
                      "internalType": "ChainKind",
                      "name": "kind",
                      "type": "uint8"
                    },
                    {
                      "internalType": "uint32",
                      "name": "id",
                      "type": "uint32"
                    }
                  ],
                  "internalType": "struct ChainId",
                  "name": "start",
                  "type": "tuple"
                },
                {
                  "components": [
                    {
                      "internalType": "ChainKind",
                      "name": "kind",
                      "type": "uint8"
                    },
                    {
                      "internalType": "uint32",
                      "name": "id",
                      "type": "uint32"
                    }
                  ],
                  "internalType": "struct ChainId",
                  "name": "end",
                  "type": "tuple"
                }
              ],
              "internalType": "struct Endpoints",
              "name": "endpoints",
              "type": "tuple"
            },
            {
              "internalType": "bytes",
              "name": "messageId",
              "type": "bytes"
            },
            {
              "internalType": "bytes",
              "name": "previousMessageId",
              "type": "bytes"
            },
            {
              "internalType": "uint32",
              "name": "payloadSize",
              "type": "uint32"
            },
            {
              "internalType": "bytes",
              "name": "payloadChecksum",
              "type": "bytes"
            },
            {
              "internalType": "uint64",
              "name": "timestamp",
              "type": "uint64"
            },
            {
              "internalType": "bytes",
              "name": "headerChecksum",
              "type": "bytes"
            }
          ],
          "internalType": "struct MessageHeader",
          "name": "header",
          "type": "tuple"
        },
        {
          "components": [
            {
              "internalType": "uint32",
              "name": "version",
              "type": "uint32"
            },
            {
              "components": [
                {
                  "internalType": "AttestationType",
                  "name": "type_",
                  "type": "uint16"
                },
                {
                  "internalType": "uint32",
                  "name": "dataSize",
                  "type": "uint32"
                },
                {
                  "internalType": "bytes",
                  "name": "data",
                  "type": "bytes"
                }
              ],
              "internalType": "struct AttestationEntry[]",
              "name": "attestations",
              "type": "tuple[]"
            }
          ],
          "internalType": "struct MessagePayload",
          "name": "payload",
          "type": "tuple"
        }
      ],
      "name": "serializeMessage",
      "outputs": [
        {
          "components": [
            {
              "components": [
                {
                  "components": [
                    {
                      "internalType": "ChainKind",
                      "name": "kind",
                      "type": "uint8"
                    },
                    {
                      "internalType": "uint32",
                      "name": "id",
                      "type": "uint32"
                    }
                  ],
                  "internalType": "struct ChainId",
                  "name": "start",
                  "type": "tuple"
                },
                {
                  "components": [
                    {
                      "internalType": "ChainKind",
                      "name": "kind",
                      "type": "uint8"
                    },
                    {
                      "internalType": "uint32",
                      "name": "id",
                      "type": "uint32"
                    }
                  ],
                  "internalType": "struct ChainId",
                  "name": "end",
                  "type": "tuple"
                }
              ],
              "internalType": "struct Endpoints",
              "name": "endpoints",
              "type": "tuple"
            },
            {
              "internalType": "bytes",
              "name": "messageId",
              "type": "bytes"
            },
            {
              "internalType": "bytes",
              "name": "previousMessageId",
              "type": "bytes"
            },
            {
              "internalType": "uint32",
              "name": "payloadSize",
              "type": "uint32"
            },
            {
              "internalType": "bytes",
              "name": "payloadChecksum",
              "type": "bytes"
            },
            {
              "internalType": "uint64",
              "name": "timestamp",
              "type": "uint64"
            },
            {
              "internalType": "bytes",
              "name": "headerChecksum",
              "type": "bytes"
            }
          ],
          "internalType": "struct MessageHeader",
          "name": "",
          "type": "tuple"
        }
      ],
      "stateMutability": "pure",
      "type": "function"
    },
    {
      "inputs": [
        {
          "internalType": "address",
          "name": "newAuthority",
          "type": "address"
        }
      ],
      "name": "setAuthority",
      "outputs": [],
      "stateMutability": "nonpayable",
      "type": "function"
    },
    {
      "inputs": [
        {
          "internalType": "uint32",
          "name": "retentionEpochs",
          "type": "uint32"
        }
      ],
      "name": "setEnvelopeRetentionConfig",
      "outputs": [],
      "stateMutability": "nonpayable",
      "type": "function"
    },
    {
      "inputs": [
        {
          "internalType": "address",
          "name": "newImplementation",
          "type": "address"
        },
        {
          "internalType": "bytes",
          "name": "data",
          "type": "bytes"
        }
      ],
      "name": "upgradeToAndCall",
      "outputs": [],
      "stateMutability": "payable",
      "type": "function"
    }
  ],
  "bytecode": "0x60a0806040523460c857306080527ff0c57e16840df040f15088dc2f81fe391c3923bec73e23a9662efc9c229c6a009081549060ff8260401c1660b957506001600160401b036002600160401b0319828216016075575b6040516142ba90816100cd82396080518181816106a2015261370a0152f35b6001600160401b031990911681179091556040519081527fc7f505b2f371ae2175ee4913f4499e1f2633a7b5936321eed1cdaeb6115181d290602090a15f80806056565b63f92ee8a960e01b8152600490fd5b5f80fdfe60806040526004361015610011575f80fd5b5f3560e01c806304676e38146101e45780630d6f1e9d146101df57806327e935a1146101da57806347453a2a146101d55780634f1ef286146101d05780634fca79cb146101cb57806352d1902d146101c6578063621fbd59146101c15780637a9e5e4b146101bc5780638fb36037146101b757806393ec06be146101b257806395fabcf0146101ad578063a3ad9cc3146101a8578063a593aec2146101a3578063a9e50c101461019e578063ad3cb1cc14610199578063b244542b14610194578063b8f8d7e51461018f578063bf7e214f1461018a578063c16a8a5614610185578063c4d66de814610180578063c94c93e71461017b578063d5b5272a14610176578063e006490014610171578063e0c14aa81461016c578063e2fc04ae14610167578063e36f9a0714610162578063e44efb5a1461015d5763f5786b4b14610158575f80fd5b6115f5565b6115d6565b6115b9565b61149c565b6110e9565b6110ac565b611010565b610fe1565b610eb5565b610e92565b610e5e565b610e3b565b610e0c565b610c07565b610bcf565b610af3565b610819565b6107fc565b6107df565b61078f565b610715565b6106f9565b610690565b6105e4565b6104d9565b61033b565b6102e4565b610290565b610208565b63ffffffff8116036101f757565b5f80fd5b3590610206826101e9565b565b346101f75760203660031901126101f7576060600435610227816101e9565b63ffffffff8091165f52600960205260405f206001600160401b036001825492015491604051938116845260201c1660208301526040820152f35b5f9103126101f757565b805180835260209291819084018484015e5f828201840152601f01601f1916010190565b346101f7575f3660031901126101f75763ffffffff600c54166102b1610c97565b906102ce604051928392835260406020840152604083019061026c565b0390f35b60209060031901126101f75760043590565b346101f7576102f2366102d2565b6102fc3633612905565b8015610315576004541561030c57005b6004555f600355005b604051636ad43cc360e11b8152600490fd5b634e487b7160e01b5f52603260045260245ffd5b346101f757610349366102d2565b6006548110156101f75760065f527ff652222313e28459528d920b65115c16c04f3efc82aaedc97be59f3f377c0d3f01546040516001600160a01b039091168152602090f35b600435906001600160a01b03821682036101f757565b634e487b7160e01b5f52604160045260245ffd5b606081019081106001600160401b038211176103d457604052565b6103a5565b602081019081106001600160401b038211176103d457604052565b604081019081106001600160401b038211176103d457604052565b60e081019081106001600160401b038211176103d457604052565b6001600160401b0381116103d457604052565b90601f801991011681019081106001600160401b038211176103d457604052565b604051906102068261040f565b60405190610206826103b9565b6001600160401b0381116103d457601f01601f191660200190565b81601f820112156101f7578035906104aa82610478565b926104b8604051948561043d565b828452602083830101116101f757815f926020809301838601378301015290565b60403660031901126101f7576104ed61038f565b6024356001600160401b0381116101f75761050c903690600401610493565b90610515613700565b61051f3633612905565b610527613700565b6040516352d1902d60e01b8152916020836004816001600160a01b0386165afa5f93816105b3575b5061057957604051634c9c8ce360e01b81526001600160a01b0383166004820152602490fd5b0390fd5b905f80516020614245833981519152830361059a576105989250613cea565b005b604051632a87526960e21b815260048101849052602490fd5b6105d691945060203d6020116105dd575b6105ce818361043d565b810190612496565b925f61054f565b503d6105c4565b346101f75760203660031901126101f7576102ce600435610604816101e9565b60405f818051610613816103b9565b828152826020820152015263ffffffff8092165f5260096020526001815f206001600160401b03835194610646866103b9565b8254908116865260201c1660208501520154818301525191829182919091604080606083019463ffffffff81511684526001600160401b0360208201511660208501520151910152565b346101f7575f3660031901126101f7577f00000000000000000000000000000000000000000000000000000000000000006001600160a01b031630036106e75760206040515f805160206142458339815191528152f35b60405163703e46dd60e11b8152600490fd5b346101f7575f3660031901126101f75760205f54604051908152f35b346101f75760203660031901126101f75761072e61038f565b5f80516020614225833981519152546001600160a01b0391908216330361077857803b1561075f5761059890612a21565b6040516361798f2f60e11b815291166004820152602490fd5b60405162d1953b60e31b8152336004820152602490fd5b346101f7575f3660031901126101f7575f805160206142258339815191525460a01c60ff16156107d7576020638fb3603760e01b5b6040516001600160e01b03199091168152f35b60205f6107c4565b346101f7575f3660031901126101f7576020604051620100008152f35b346101f7575f3660031901126101f7576020600354604051908152f35b346101f75760203660031901126101f757600435610836816101e9565b6108403633612905565b600c5463ffffffff1661085e610855826118a4565b63ffffffff1690565b63ffffffff831603610ac457506108736118f8565b63ffffffff821660608201526108a46108946001600160401b034216611935565b6001600160401b03166040830152565b6108ac612a79565b60a08201525f60085480151580610952575b7fe93b186dfb145614c1bb2c64e844f7211236c8c919656e5e745d6cdb6260d88761094d866109416108ef88612b56565b9161090062010000845111156121f7565b610922835160208501206109148184612f19565b61091d83612f7f565b600d55565b61092b83612269565b63ffffffff1663ffffffff19600c541617600c55565b60405191829182610df8565b0390a1005b5f6101005b838210610a6e575b50506109759083159081610a66575b5015611b50565b8161097f81611c2b565b60c085019081525f5b828110610a2e57505061099a91611c8e565b905f5b828110610a0057505f5b8181106109ef575050916109416108ef61094d936109e57fe93b186dfb145614c1bb2c64e844f7211236c8c919656e5e745d6cdb6260d88796600855565b93508294506108be565b6001906109fa612125565b016109a7565b80610a28610a18610a1360019486611b35565b611951565b50610a2283611951565b90611fb6565b0161099d565b6001919250610a5c81610a4081611951565b50610a4c865191611a57565b610a568383611c7a565b52611c7a565b5001908391610988565b90505f61096e565b610a8a610a85610a7f849794611951565b50611a57565b612ae8565b9062010000610a998383611b35565b11610abb57610aad600192610ab392611b35565b92611b42565b940190610957565b5081945061095f565b610acd906118a4565b6040516307d3e83d60e51b815263ffffffff918216600482015291166024820152604490fd5b346101f75760203660031901126101f757600435610b10816101e9565b610b1a3633612905565b63ffffffff80821690815f52600960205260405f20541615610b8a5761059891610b6b610b7f92610b64610855610b56600a5463ffffffff1690565b600c5463ffffffff16612fd7565b101561240b565b63ffffffff165f52600960205260405f2090565b60015f918281550155565b60405162461bcd60e51b815260206004820152601760248201527f4f50503a207265636f7264206e6f742070726573656e740000000000000000006044820152606490fd5b346101f7575f3660031901126101f75760206001600160401b0360015416604051908152f35b60405190610c02826103d9565b5f8252565b346101f7575f3660031901126101f7576102ce604051610c26816103f4565b60058152640352e302e360dc1b602082015260405191829160208352602083019061026c565b634e487b7160e01b5f525f60045260245ffd5b90600182811c92168015610c8d575b6020831014610c7957565b634e487b7160e01b5f52602260045260245ffd5b91607f1691610c6e565b604051905f82600b5491610caa83610c5f565b80835292602090600190818116908115610d345750600114610cd5575b50506102069250038361043d565b915092600b5f527f0175b7a638427703f0dbe7bb9bbf987a2551717b34e79f33b5b1008d1fa01db9935f925b828410610d1c57506102069450505081016020015f80610cc7565b85548885018301529485019487945092810192610d01565b9150506020925061020694915060ff191682840152151560051b8201015f80610cc7565b9060405191825f8254610d6a81610c5f565b908184526020946001916001811690815f14610dd65750600114610d98575b5050506102069250038361043d565b5f90815285812095935091905b818310610dbe57505061020693508201015f8080610d89565b85548884018501529485019487945091830191610da5565b9250505061020694925060ff191682840152151560051b8201015f8080610d89565b906020610e0992818152019061026c565b90565b346101f7575f3660031901126101f7576102ce610e27610c97565b60405191829160208352602083019061026c565b346101f7575f3660031901126101f757602063ffffffff600c5416604051908152f35b346101f7575f3660031901126101f7575f80516020614225833981519152546040516001600160a01b039091168152602090f35b346101f7575f3660031901126101f757602063ffffffff600a5416604051908152f35b346101f75760203660031901126101f757610ece61038f565b5f8051602061426583398151915254906001600160401b0360ff8360401c1615921680159081610fd9575b6001149081610fcf575b159081610fc6575b50610fb4575f80516020614265833981519152805467ffffffffffffffff19166001179055610f3e9082610f9057612ff6565b610f4457005b5f80516020614265833981519152805460ff60401b19169055604051600181527fc7f505b2f371ae2175ee4913f4499e1f2633a7b5936321eed1cdaeb6115181d290806020810161094d565b5f80516020614265833981519152805460ff60401b1916600160401b179055612ff6565b60405163f92ee8a960e01b8152600490fd5b9050155f610f0b565b303b159150610f03565b839150610ef9565b346101f75760203660031901126101f7576004355f526005602052602060ff60405f2054166040519015158152f35b346101f75760203660031901126101f75760043561102d816101e9565b6110373633612905565b604051611043816103d9565b63ffffffff8092168082521561106757511663ffffffff19600a541617600a555f80f35b60405162461bcd60e51b815260206004820152601d60248201527f4f50503a20696e76616c696420726574656e74696f6e20636f6e6669670000006044820152606490fd5b346101f7575f3660031901126101f7576020600854604051908152f35b6004359061ffff821682036101f757565b359061ffff821682036101f757565b346101f7576040806003193601126101f7576111036110c9565b6024356001600160401b0381116101f757611122903690600401610493565b9160045415611205576111353633612905565b5f805160206142258339815191525461116490611158906001600160a01b031681565b6001600160a01b031690565b81516368fc2b7760e11b815261ffff841662010000176004820152336024820152908290829060449082905afa908115611200575f916111d2575b50156111af576105988383613157565b51639a28d60760e01b815233600482015261ffff91909116602482015260449150fd5b6111f29150823d84116111f9575b6111ea818361043d565b810190612465565b505f61119f565b503d6111e0565b61248b565b5163738c481160e01b8152600490fd5b91908260409103126101f75760405161122d816103f4565b8092803560ff811681036101f75782526020908101359161124d836101e9565b0152565b91906080838203126101f75760206112856040519261126f846103f4565b6040849661127d8382611215565b865201611215565b910152565b35906001600160401b03821682036101f757565b6001600160401b0381116103d45760051b60200190565b91909160409081818503126101f75781516112cf816103f4565b809482356112dc816101e9565b8252602092838101356001600160401b03918282116101f757019180601f840112156101f75782359061130e8261129e565b9661131b8151988961043d565b828852868089019360051b860101948286116101f757878101935b86851061134857505050505050500152565b84358681116101f75782019060609081601f1984880301126101f757845191611370836103b9565b61137b8c85016110da565b83528584013561138a816101e9565b8c840152830135918883116101f7576113aa878d80969581960101610493565b86820152815201940193611336565b9060406020610206936113e084825163ffffffff6020809260ff8151168552015116910152565b015191019063ffffffff6020809260ff8151168552015116910152565b90610e0991602081526114146020820183516113b9565b602082015190611432610140928360a084015261016083019061026c565b9160c0611478611453604087015195601f199687878303018588015261026c565b606087015163ffffffff1660e08601526080870151868683030161010087015261026c565b60a08601516001600160401b0316610120850152940151928285030191015261026c565b346101f7576003196040368201126101f757600480356001600160401b03928382116101f7576101409082360301126101f7576114d761045e565b906114e436828501611251565b825260848101358481116101f75761150190843691840101610493565b602083015260a48101358481116101f75761152190843691840101610493565b604083015261153260c482016101fb565b606083015260e48101358481116101f75761155290843691840101610493565b6080830152611564610104820161128a565b60a0830152610124810135908482116101f757836115859236920101610493565b60c08201526024359283116101f7576115a76115ad926102ce943691016112b5565b906125d7565b604051918291826113fd565b346101f7575f3660031901126101f7576020600454604051908152f35b346101f7575f3660031901126101f75760206004541515604051908152f35b346101f757611603366102d2565b600490815415611880576116173633612905565b80156118705781541461162657005b5f81556003549081156118615761163b611bb3565b915f5480155f146117f5575061164f6132f9565b604090604085015261167c61166c6001600160401b034216611935565b6001600160401b031660a0860152565b611684611bf0565b600181529161169281613343565b916020928385019081525f5b8381106117825750505050806116b7836116d6966125d7565b93818501519060405196879283926347f5343160e01b84528301610df8565b038173__$b91d2ad766fd07dc99f56c1a0b020615bb$__5af4801561120057611749945f91611765575b505f5561173661171a60a08501516001600160401b031690565b6001600160401b03166001600160401b03196001541617600155565b61173e611c09565b92835282015261351d565b61175c611757600854611b42565b600855565b6105985f600355565b61177c9150823d84116105dd576105ce818361043d565b5f611700565b806117ee8161179b611795600195613050565b506133a7565b886117a8825161ffff1690565b9101516117dd6117bc825163ffffffff1690565b6117d16117c761046b565b61ffff9095168552565b63ffffffff16838c0152565b87820152855190610a568383611c7a565b500161169e565b604051630c9b3d8760e21b8152838101918252905f9082908190602001038173__$b91d2ad766fd07dc99f56c1a0b020615bb$__5af4908115611200575f9161183f575b5061164f565b61185b91503d805f833e611853818361043d565b810190612550565b5f611839565b60405163783bc0f160e11b8152fd5b50604051636ad43cc360e11b8152fd5b5060405163738c481160e01b8152fd5b634e487b7160e01b5f52601160045260245ffd5b90600163ffffffff809316019182116118b957565b611890565b604051906118cb826103f4565b5f6020838281520152565b604051906118e3826103f4565b816118ec6118be565b815260206112856118be565b604051906119058261040f565b606060c0838281526119156118d6565b60208201525f60408201525f838201525f60808201528260a08201520152565b906103e86001600160401b03809316029182169182036118b957565b60075481101561198a57600a9060075f52027fa66cc928b5edb82af9bd49922954155ab7b0942694bea4ce44661d9a8736c68801905f90565b610327565b9060405161199c816103f4565b915460ff8116835260081c63ffffffff166020830152565b90604080516119c2816103f4565b809363ffffffff80825416835260018092018054916119e08361129e565b956119ee604051978861043d565b83875260209160208801935f5260205f20915f945b868610611a1857505050505050505060200152565b60028589928451611a28816103b9565b86885461ffff8116835260101c1683820152611a45858901610d58565b86820152815201940195019492611a03565b90604051611a64816103f4565b602061128560088395604051611a798161040f565b604051611a85816103f4565b611a8e8361198f565b8152611a9c6001840161198f565b868201528152611aae60028301610d58565b85820152611abe60038301610d58565b6040820152611ae4611ad7600484015463ffffffff1690565b63ffffffff166060830152565b611af060058301610d58565b6080820152611b1c611b0c60068401546001600160401b031690565b6001600160401b031660a0830152565b611b2860078301610d58565b60c08201528552016119b4565b919082018092116118b957565b5f1981146118b95760010190565b15611b5757565b60405162461bcd60e51b815260206004820152602e60248201527f4f50503a20717565756564206d6573736167652065786365656473204d41585f60448201526d454e56454c4f50455f425954455360901b6064820152608490fd5b60405190611bc08261040f565b606060c083611bcd6118d6565b81528260208201528260408201525f838201528260808201525f60a08201520152565b60405190611bfd826103f4565b60606020835f81520152565b60405190611c16826103f4565b81611c1f611bb3565b81526020611285611bf0565b90611c358261129e565b611c42604051918261043d565b8281528092611c53601f199161129e565b01905f5b828110611c6357505050565b602090611c6e611c09565b82828501015201611c57565b805182101561198a5760209160051b010190565b919082039182116118b957565b818110611ca6575050565b5f8155600101611c9b565b90601f8211611cbe575050565b61020691600b5f527f0175b7a638427703f0dbe7bb9bbf987a2551717b34e79f33b5b1008d1fa01db9906020601f840160051c83019310611d07575b601f0160051c0190611c9b565b9091508190611cfa565b9190601f8111611d2057505050565b610206925f5260205f20906020601f840160051c83019310611d0757601f0160051c0190611c9b565b919091828114611e3057611d5d8354610c5f565b6001600160401b0381116103d457611d7f81611d798454610c5f565b84611d11565b5f93601f8211600114611dbe57611daf92939482915f92611db3575b50508160011b915f199060031b1c19161790565b9055565b015490505f80611d9b565b611dd0601f198316915f5260205f2090565b94611dde845f5260205f2090565b915f5b818110611e1857509583600195969710611e00575b505050811b019055565b01545f1960f88460031b161c191690555f8080611df6565b87830154845560019384019390920191602001611de1565b509050565b611e3f8154610c5f565b9081611e49575050565b81601f5f9311600114611e5a575055565b908083918252611e79601f60208420940160051c840160018501611c9b565b5555565b600160401b82116103d4578054828255808310611e9957505050565b6001916001600160ff1b0382811683036118b957841684036118b9575f5260205f209060011b81019260011b015b828110611ed357505050565b805f60029255611ee4838201611e35565b01611ec7565b818114611f7757815491611efe8383611e7d565b5f5260205f20905f5260205f20905f905b838210611f1c5750505050565b806001918403611f37575b6002809101930191019091611f0f565b8054845461ffff191661ffff919091161784558054845465ffffffff0000191665ffffffff0000909116178455611f72818301858401611d49565b611f27565b5050565b818103611f86575050565b60018083611fae63ffffffff610206965416859063ffffffff1663ffffffff19825416179055565b019101611eea565b9061212057818114159182611fca57505050565b600880918461020695611fe1575b50019101611f7b565b80612091575b50611ff86002820160028601611d49565b6120086003820160038601611d49565b61203561201c600483015463ffffffff1690565b600486019063ffffffff1663ffffffff19825416179055565b6120456005820160058601611d49565b61207b61205c60068301546001600160401b031690565b60068601906001600160401b03166001600160401b0319825416179055565b61208b6007820160078601611d49565b5f611fd8565b6120ee575b6001840160018201908181036120ad575b50611fe7565b8154815460ff191660ff919091161781556120e79163ffffffff9054851c1664ffffffff0082549160081b169064ffffffff001916179055565b5f806120a7565b8054845460ff191660ff919091161784558054845464ffffffff00191690831c60081b64ffffffff0016178455612096565b610c4c565b60075480156121e3575f190161213a81611951565b612120575f815560015f6001830155600960029261215a60028201611e35565b61216660038201611e35565b5f600482015561217860058201611e35565b5f600682015561218a60078201611e35565b5f600882015501908154915f8155826121a7575b50505050600755565b6001600160ff1b03831683036118b9575f5260205f209160011b8201915b8281101561219e57805f8592556121dd838201611e35565b016121c5565b634e487b7160e01b5f52603160045260245ffd5b156121fe57565b60405162461bcd60e51b815260206004820152603a60248201527f4f50503a20656e76656c6f70652065786365656473204d41585f454e56454c4f60448201527f50455f42595445532028657374696d61746f72206472696674290000000000006064820152608490fd5b9081516001600160401b0381116103d45761228e81612289600b54610c5f565b611cb1565b602080601f83116001146122ce575081906122be93945f926122c35750508160011b915f199060031b1c19161790565b600b55565b015190505f80611d9b565b90601f19831694612300600b5f527f0175b7a638427703f0dbe7bb9bbf987a2551717b34e79f33b5b1008d1fa01db990565b925f905b87821061233b575050836001959610612323575b505050811b01600b55565b01515f1960f88460031b161c191690555f8080612318565b80600185968294968601518155019501930190612304565b91909182516001600160401b0381116103d45761237481611d798454610c5f565b602080601f83116001146123a557508190611daf9394955f926122c35750508160011b915f199060031b1c19161790565b90601f198316956123b9855f5260205f2090565b925f905b8882106123f3575050836001959697106123db57505050811b019055565b01515f1960f88460031b161c191690555f8080611df6565b806001859682949686015181550195019301906123bd565b1561241257565b60405162461bcd60e51b815260206004820152602560248201527f4f50503a207265636f7264207374696c6c20696e20726574656e74696f6e2077604482015264696e646f7760d81b6064820152608490fd5b91908260409103126101f757815180151581036101f757602090920151610e09816101e9565b6040513d5f823e3d90fd5b908160209103126101f7575190565b90602080835260609060608401908063ffffffff94858151168288015201519460408080830152865180945260808201908360808660051b8501019801955f935b8685106124f95750505050505050505090565b90919293949596979998868061253b600193868f89908f607f198a8603018d52519061ffff8251168552868201511686850152015191818a820152019061026c565b9b9c9a019897969190910194019291906124e6565b6020818303126101f7578051906001600160401b0382116101f7570181601f820112156101f75780519061258382610478565b92612591604051948561043d565b828452602083830101116101f757815f9260208093018386015e8301015290565b90916125c9610e099360408452604084019061026c565b91602081840391015261026c565b906125e0611bb3565b506040805163765809ab60e11b81526004926020929173__$b91d2ad766fd07dc99f56c1a0b020615bb$__919084818061261c858a83016124a5565b0381865af4908115611200575f91612877575b5060808701908582518051155f146127f35750508451630c9b3d8760e21b8152878101918252905f90829081906020010381875af49283156112005761269c9361268f93612685935f926127d7575b50526131ef565b5163ffffffff1690565b63ffffffff166060870152565b815162409a0960e81b81525f81806126b6898983016113fd565b0381855af4908115611200575f916127bd575b50858401805180518061278257505052815163b93612a760e01b8152938385806126f5898583016113fd565b0381855af49283156112005761272e955f958695612763575b505051630c9b3d8760e21b81529081019283529384928391829160200190565b03915af4908115611200575f91612749575b5060c082015290565b61275d91503d805f833e611853818361043d565b5f612740565b61277a929550803d106105dd576105ce818361043d565b925f8061270e565b9150939250848496959296012090855190860120036127a2575050505090565b51630ca2e06d60e11b815292839261057592919084016125b2565b6127d191503d805f833e611853818361043d565b5f6126c9565b6127ec9192503d805f833e611853818361043d565b905f61267e565b9091935061281492508551809381926347f5343160e01b83528a8301610df8565b0381865af4908115611200575f9161285a575b5081810361283657505061269c565b8351631d97afef60e31b815280870192835260208301919091529081906040010390fd5b6128719150853d87116105dd576105ce818361043d565b5f612827565b61288e9150853d87116105dd576105ce818361043d565b5f61262f565b6004116101f7575f90600490565b6001600160e01b031990358181169392600481106128bf57505050565b60040360031b82901b16169150565b6001600160a01b0390911681526040602082018190528101829052606091805f848401375f828201840152601f01601f1916010190565b5f80516020614225833981519152805461293d906001600160a01b031661293461292e86612894565b906128a2565b9084309161367f565b901561294a575b50505050565b63ffffffff1615612a01575f80516020614225833981519152805460ff60a01b1916600160a01b17905561298b90611158908190546001600160a01b031690565b91823b156101f7576129b6925f9283604051809681958294634a63ebf760e11b8452600484016128ce565b03925af18015611200576129e8575b505f80516020614225833981519152805460ff60a01b191690555f808080612944565b806129f56129fb9261042a565b80610262565b5f6129c5565b60405162d1953b60e31b81526001600160a01b0383166004820152602490fd5b5f8051602061422583398151915280546001600160a01b0319166001600160a01b0390921691821790556040519081527f2f658b440c35314f52658ea8a740e05b284cdc84dc9ae01e891f21b8933e7cad90602090a1565b600d5480612a945750604051612a8e816103d9565b5f815290565b60405190630c9b3d8760e21b825260048201525f8160248173__$b91d2ad766fd07dc99f56c1a0b020615bb$__5af4908115611200575f91612ad4575090565b610e0991503d805f833e611853818361043d565b61010090602080910190602082510151515f925b818410612b0a575050505090565b909192936018808201918281116118b9576040612b2b888887510151611c7a565b5101515101018091116118b95793600101929190612afc565b805191908290602001825e015f815290565b612b5e610bf5565b612b66613911565b92604080518095602094858301612b7c91612b44565b612b8591612b44565b0394601f19958681018252612b9a908261043d565b8451612ba590613759565b908251918291868301612bb791612b44565b612bc091612b44565b038681018252612bd0908261043d565b612bd8613928565b908251918291868301612bea91612b44565b612bf391612b44565b038681018252612c03908261043d565b83850151612c1090613795565b908151612c23906001600160401b031690565b612c2c90613a38565b908351918291878301612c3e91612b44565b612c4791612b44565b038781018252612c57908261043d565b8251918291868301612c6891612b44565b612c7191612b44565b038681018252612c81908261043d565b612c8961393b565b908251918291868301612c9b91612b44565b612ca491612b44565b038681018252612cb4908261043d565b848201516001600160401b0316612cca90613a38565b908251918291868301612cdc91612b44565b612ce591612b44565b038681018252612cf5908261043d565b612cfd61394e565b908251918291868301612d0f91612b44565b612d1891612b44565b038681018252612d28908261043d565b6060850151612d3c9063ffffffff16613a38565b908251918291868301612d4e91612b44565b612d5791612b44565b038681018252612d67908261043d565b612d6f613961565b908251918291868301612d8191612b44565b612d8a91612b44565b038681018252612d9a908261043d565b6080850151612dae9063ffffffff16613a38565b908251918291868301612dc091612b44565b612dc991612b44565b038681018252612dd9908261043d565b612de1613974565b908251918291868301612df391612b44565b612dfc91612b44565b038681018252612e0c908261043d565b60a0850151612e1a90613759565b908251918291868301612e2c91612b44565b612e3591612b44565b038681018252612e45908261043d565b915f925b60c08601805151851015612f0f57612e8f612f0560c093612ef9612ead612ea78a6001978f612ea1908f612e958f612e8f612e826139b9565b91519b8c94850190612b44565b90612b44565b0390810188528761043d565b51611c7a565b51613ab7565b612eeb8d8c612edf8c612e8f612ed2612ecd88516001600160401b031690565b613a38565b9151988994850190612b44565b0390810185528461043d565b88519485938c850190612b44565b038a810183528261043d565b9401939050612e49565b5095509350505050565b63ffffffff8082165f52600960205260405f2090815416612f7a57612f50600192829063ffffffff1663ffffffff19825416179055565b80546bffffffffffffffff0000000019164260201b6bffffffffffffffff00000000161781550155565b505050565b612f969063ffffffff91829182600a541690612fd7565b16908115159081612fbf575b50612faa5750565b5f5260096020525f6001604082208281550155565b9050815f52600960205260405f20541615155f612fa2565b63ffffffff91908282168382161115612fef57031690565b5050505f90565b61301f90613002613bb7565b61300a613bb7565b613012613bb7565b61301a613bb7565b612a21565b613027613bb7565b61302f613bb7565b60c860405161303d816103d9565b5260c863ffffffff19600a541617600a55565b60025481101561198a5760025f5260011b7f405787fa12a823e0f2b7631cc41b3ba8828b3321ca811111fa75cd3aa3bb5ace01905f90565b929190612120578051835461ffff191661ffff91909116178355600180930190602080910151938451916001600160401b0383116103d4576130d4836130ce8654610c5f565b86611d11565b602091601f84116001146131065750508190611daf9394955f926122c35750508160011b915f199060031b1c19161790565b95601f9291921984169661311d865f5260205f2090565b935f915b89831061314057505050836001959697106123db57505050811b019055565b838501518655948501949381019391810191613121565b600254916003548084115f146131ac575061020692506131856040519261317d846103f4565b61ffff168352565b60208201526131a66003546131a161319c82611b42565b600355565b613050565b90613088565b6131b590611b42565b60035561ffff604051926131c8846103f4565b1682526020820152600160401b8210156103d4576131a68260016102069401600255613050565b613222916131fb610bf5565b906132046139d9565b612e8f613268604092604051978891612e8f60209889850190612b44565b0396613236601f199889810183528261043d565b61325c61324d612ecd6108558a5163ffffffff1690565b60405194859389850190612b44565b0387810183528261043d565b915f925b848601805151851015612f0f57612e8f6132ef612e8f612ef989956132e18d6132bb6132b58d60019a612ea18f6132a98f91612e8f612e82613928565b0386810189528861043d565b51613be5565b92612edf6132d3612ecd86516001600160401b031690565b8d519788938d850190612b44565b885194859388850190612b44565b940193905061326c565b604051613305816103d9565b5f8152905f368137565b6040519061331c826103f4565b6001825260203681840137565b60405190613336826103f4565b600a825260203681840137565b9061334d8261129e565b60409061335d604051918261043d565b838152809361336e601f199161129e565b01915f5b83811061337f5750505050565b602090825161338d816103b9565b5f8152825f81830152606085830152828601015201613372565b906040516133b4816103f4565b60206112856001839561ffff815416855201610d58565b8151815463ffffffff191663ffffffff91821617825591600180920160208092015191808351936133fc8585611e7d565b01915f52805f205f925b8484106134165750505050505050565b8051805183548583015161ffff90921665ffffffffffff199091161790891660101b65ffffffff0000161783556040015180519187840191906001600160401b0384116103d45782869261346f86611d798d9754610c5f565b8390601f87116001146134af5795806134a092600297985f926122c35750508160011b915f199060031b1c19161790565b90555b01920193019290613406565b9590601f198216966134c4845f5260205f2090565b975f5b818110613504575091879891846002999594106134ec575b505050811b0190556134a3565b01515f1960f88460031b161c191690555f80806134df565b838301518a5597909801978d978b9793840193016134c7565b600754600160401b8110156103d45780600161353c9201600755611951565b61212057600860208361367660c061020696516135d6815186613598825161357260ff8251168d9060ff1660ff19825416179055565b909101518a5464ffffffff00191660089190911b64ffffffff0016178a5563ffffffff90565b878060018c019301516135b960ff825116859060ff1660ff19825416179055565b0151825464ffffffff001916911660081b64ffffffff0016179055565b6135e68582015160028901612353565b6135f7604082015160038901612353565b61362461360b606083015163ffffffff1690565b600489019063ffffffff1663ffffffff19825416179055565b613635608082015160058901612353565b61366b61364c60a08301516001600160401b031690565b60068901906001600160401b03166001600160401b0319825416179055565b015160078601612353565b015191016133cb565b93915f945f9460405193602085019363b700961360e01b855260018060a01b03809216602487015216604485015263ffffffff60e01b1660648401526064835260a08301918383106001600160401b038411176103d4576040935f9385528380528360205251915afa6136ee57565b9150505f51906020518060201c150290565b6001600160a01b037f0000000000000000000000000000000000000000000000000000000000000000811630811491821561373e575b50506106e757565b5f805160206142458339815191525416141590505f80613736565b610e09612e8f916137876137766001600160401b03835116613a38565b916040519485936020850190612b44565b03601f19810183528261043d565b61379d610bf5565b906137a6613911565b60408051938460209384928383016137bd91612b44565b6137c691612b44565b0393601f199485810187526137db908761043d565b80516137e690613d8f565b9586516137f9906001600160401b031690565b61380290613a38565b90845191829185830161381491612b44565b61381d91612b44565b03868101825261382d908261043d565b835196879184830161383e91612b44565b61384791612b44565b038581018752613857908761043d565b61385f613928565b95835196879184830161387191612b44565b61387a91612b44565b03858101875261388a908761043d565b015161389590613d8f565b9081516138a8906001600160401b031690565b6138b190613a38565b9481519586918583016138c391612b44565b6138cc91612b44565b0384810186526138dc908661043d565b5193849283016138eb91612b44565b6138f491612b44565b039081018252610e09908261043d565b80511561198a5760200190565b61391961330f565b600a61392482613904565b5390565b61393061330f565b601261392482613904565b61394361330f565b602861392482613904565b61395661330f565b603061392482613904565b61396961330f565b603861392482613904565b61397c613329565b60a25f5b607f808311156139a55790608060019284161760208286010153019060071c90613980565b50607f600192166020828501015301815290565b6139c1613329565b61014260015f60c26020850153019060071c90613980565b6139e161330f565b600861392482613904565b6139f461330f565b601061392482613904565b613a0761330f565b601a61392482613904565b613a1a61330f565b603261392482613904565b613a2d61330f565b604261392482613904565b9060809160806001600160401b03821610613a9357613a55613329565b5f5b607f80841115613a7b57908560019285161760208285010153019160071c91613a57565b5090929350607f600192166020828501015301815290565b909150613a9e61330f565b9060f81b6001600160f81b0319165f1a61392482613904565b613abf610bf5565b90613ac8613911565b6040805193846020938492838301613adf91612b44565b613ae891612b44565b0393601f19948581018752613afd908761043d565b8051613b0890613e47565b958651613b1b906001600160401b031690565b613b2490613a38565b908451918291858301613b3691612b44565b613b3f91612b44565b038681018252613b4f908261043d565b8351968791848301613b6091612b44565b613b6991612b44565b038581018752613b79908761043d565b613b81613928565b958351968791848301613b9391612b44565b613b9c91612b44565b038581018752613bac908761043d565b0151613895906131ef565b60ff5f805160206142658339815191525460401c1615613bd357565b604051631afcd79f60e31b8152600490fd5b610e09613c26612e8f92613cde613cca612e8f613cd1613c03610bf5565b94613c0c6139d9565b9060409485928351998a91612e8f60209b8c850190612b44565b0398613c3a601f199a8b810183528261043d565b613c7989613c6d613c5d612ecd613c56613c56895161ffff1690565b61ffff1690565b612e8f8851958694850190612b44565b038b810183528261043d565b613c8889613c6d613c5d6139ec565b613ca589613c6d613c5d612ecd6108558489015163ffffffff1690565b613cbe613cb06139ff565b85519d8e938c850190612b44565b038981018c528b61043d565b0151613759565b9151968794850190612b44565b0390810183528261043d565b90813b15613d6e575f8051602061424583398151915280546001600160a01b0319166001600160a01b0384169081179091557fbc7cd75a20ee27fd9adebab32041f755214dbc6bffa90cc0225b39da2e5c2d3b5f80a2805115613d5357613d5091614181565b50565b505034613d5c57565b60405163b398979f60e01b8152600490fd5b604051634c9c8ce360e01b81526001600160a01b0383166004820152602490fd5b610e09612e8f612e8f613cde613e37612ecd6108556020612e8f98613e2c612e8f613e06613dbb610bf5565b613dd5613dc66139d9565b6040519d8e9389850190612b44565b039a613de9601f199c8d810183528261043d565b613c6d61324d612ecd613e00613e00895160ff1690565b60ff1690565b613e20613e116139ec565b6040519a8b9387850190612b44565b0389810189528861043d565b015163ffffffff1690565b6040519586936020850190612b44565b613e4f610bf5565b90613e58613911565b91604080518094602093848301613e6e91612b44565b613e7791612b44565b0392601f19938481018652613e8c908661043d565b8051613e9790613795565b948551613eaa906001600160401b031690565b613eb390613a38565b908351918291868301613ec591612b44565b613ece91612b44565b038581018252613ede908261043d565b8251958691858301613eef91612b44565b613ef891612b44565b038481018652613f08908661043d565b613f10613928565b948251958691858301613f2291612b44565b613f2b91612b44565b038481018652613f3b908661043d565b82810151613f4890613759565b948251958691858301613f5a91612b44565b613f6391612b44565b038481018652613f73908661043d565b613f7b6139ff565b948251958691858301613f8d91612b44565b613f9691612b44565b038481018652613fa6908661043d565b81810151613fb390613759565b948251958691858301613fc591612b44565b613fce91612b44565b038481018652613fde908661043d565b613fe661393b565b948251958691858301613ff891612b44565b61400191612b44565b038481018652614011908661043d565b60608101516140259063ffffffff16613a38565b94825195869185830161403791612b44565b61404091612b44565b038481018652614050908661043d565b614058613a12565b94825195869185830161406a91612b44565b61407391612b44565b038481018652614083908661043d565b608081015161409190613759565b9482519586918583016140a391612b44565b6140ac91612b44565b0384810186526140bc908661043d565b6140c4613961565b9482519586918583016140d691612b44565b6140df91612b44565b0384810186526140ef908661043d565b60a08101516001600160401b031661410690613a38565b94825195869185830161411891612b44565b61412191612b44565b038481018652614131908661043d565b614139613a25565b94825195869185830161414b91612b44565b61415491612b44565b038481018652614164908661043d565b60c0015161417190613759565b905193849283016138eb91612b44565b5f80610e0993602081519101845af43d156141bd573d916141a183610478565b926141af604051948561043d565b83523d5f602085013e6141c1565b6060915b906141e857508051156141d657602081519101fd5b60405163d6bda27560e01b8152600490fd5b8151158061421b575b6141f9575090565b604051639996b31560e01b81526001600160a01b039091166004820152602490fd5b50803b156141f156fef3177357ab46d8af007ab3fdb9af81da189e1068fefdc0073dca88a2cab40a00360894a13ba1a3210667c828492db98dca3e2076cc3735a920a3ca505d382bbcf0c57e16840df040f15088dc2f81fe391c3923bec73e23a9662efc9c229c6a00a26469706673582212201dd53cc2caf86754ed88247c9b779f72471445dd4bcf6d516a7bf3bb29c0dce864736f6c63430008190033",
  "linkReferences": {
    "contracts/outpost/OPPCommon.sol": {
      "OPPCommon": [
        {
          "length": 20,
          "start": 6055
        },
        {
          "length": 20,
          "start": 6371
        },
        {
          "length": 20,
          "start": 9925
        },
        {
          "length": 20,
          "start": 11131
        }
      ]
    }
  },
  "deployedLinkReferences": {
    "contracts/outpost/OPPCommon.sol": {
      "OPPCommon": [
        {
          "length": 20,
          "start": 5850
        },
        {
          "length": 20,
          "start": 6166
        },
        {
          "length": 20,
          "start": 9720
        },
        {
          "length": 20,
          "start": 10926
        }
      ]
    }
  }
}