{
  "_format": "hh-sol-artifact-1",
  "contractName": "OPPInbound",
  "sourceName": "contracts/outpost/OPPInbound.sol",
  "abi": [
    {
      "inputs": [
        {
          "internalType": "address",
          "name": "authority",
          "type": "address"
        }
      ],
      "name": "AccessManagedInvalidAuthority",
      "type": "error"
    },
    {
      "inputs": [
        {
          "internalType": "address",
          "name": "caller",
          "type": "address"
        },
        {
          "internalType": "uint32",
          "name": "delay",
          "type": "uint32"
        }
      ],
      "name": "AccessManagedRequiredDelay",
      "type": "error"
    },
    {
      "inputs": [
        {
          "internalType": "address",
          "name": "caller",
          "type": "address"
        }
      ],
      "name": "AccessManagedUnauthorized",
      "type": "error"
    },
    {
      "inputs": [
        {
          "internalType": "address",
          "name": "target",
          "type": "address"
        }
      ],
      "name": "AddressEmptyCode",
      "type": "error"
    },
    {
      "inputs": [
        {
          "internalType": "address",
          "name": "implementation",
          "type": "address"
        }
      ],
      "name": "ERC1967InvalidImplementation",
      "type": "error"
    },
    {
      "inputs": [],
      "name": "ERC1967NonPayable",
      "type": "error"
    },
    {
      "inputs": [],
      "name": "FailedCall",
      "type": "error"
    },
    {
      "inputs": [],
      "name": "InvalidInitialization",
      "type": "error"
    },
    {
      "inputs": [],
      "name": "NotInitializing",
      "type": "error"
    },
    {
      "inputs": [
        {
          "internalType": "bytes32",
          "name": "expected",
          "type": "bytes32"
        },
        {
          "internalType": "bytes32",
          "name": "actual",
          "type": "bytes32"
        }
      ],
      "name": "OPP_EpochHashMismatch",
      "type": "error"
    },
    {
      "inputs": [
        {
          "internalType": "uint256",
          "name": "required",
          "type": "uint256"
        },
        {
          "internalType": "uint256",
          "name": "provided",
          "type": "uint256"
        }
      ],
      "name": "OPP_InsufficientSignatureWeight",
      "type": "error"
    },
    {
      "inputs": [
        {
          "internalType": "address",
          "name": "caller",
          "type": "address"
        },
        {
          "internalType": "address",
          "name": "expected",
          "type": "address"
        }
      ],
      "name": "OPP_InvalidOPPAddress",
      "type": "error"
    },
    {
      "inputs": [
        {
          "internalType": "bytes",
          "name": "expected",
          "type": "bytes"
        },
        {
          "internalType": "bytes",
          "name": "actual",
          "type": "bytes"
        }
      ],
      "name": "OPP_MessageIDMismatch",
      "type": "error"
    },
    {
      "inputs": [],
      "name": "OPP_NoAttestationsSent",
      "type": "error"
    },
    {
      "inputs": [],
      "name": "OPP_NoPendingAttestations",
      "type": "error"
    },
    {
      "inputs": [
        {
          "internalType": "uint32",
          "name": "expected",
          "type": "uint32"
        },
        {
          "internalType": "uint32",
          "name": "actual",
          "type": "uint32"
        }
      ],
      "name": "OPP_NonSequentialEpoch",
      "type": "error"
    },
    {
      "inputs": [],
      "name": "OPP_NotSending",
      "type": "error"
    },
    {
      "inputs": [],
      "name": "OPP_OPPAddressNotSet",
      "type": "error"
    },
    {
      "inputs": [
        {
          "internalType": "bytes32",
          "name": "expected",
          "type": "bytes32"
        },
        {
          "internalType": "bytes32",
          "name": "actual",
          "type": "bytes32"
        }
      ],
      "name": "OPP_PayloadChecksumMismatch",
      "type": "error"
    },
    {
      "inputs": [
        {
          "internalType": "uint32",
          "name": "epochIndex",
          "type": "uint32"
        },
        {
          "internalType": "uint256",
          "name": "messageCount",
          "type": "uint256"
        }
      ],
      "name": "OPP_PreviousEpochPendingMessages",
      "type": "error"
    },
    {
      "inputs": [
        {
          "internalType": "uint32",
          "name": "epochIndex",
          "type": "uint32"
        }
      ],
      "name": "OPP_PreviousEpochSent",
      "type": "error"
    },
    {
      "inputs": [
        {
          "internalType": "uint32",
          "name": "epochIndex",
          "type": "uint32"
        }
      ],
      "name": "OPP_PreviousEpochUnsent",
      "type": "error"
    },
    {
      "inputs": [
        {
          "internalType": "uint256",
          "name": "stack",
          "type": "uint256"
        }
      ],
      "name": "OPP_SendStackError",
      "type": "error"
    },
    {
      "inputs": [
        {
          "internalType": "uint256",
          "name": "expectedMaxMessages",
          "type": "uint256"
        },
        {
          "internalType": "uint256",
          "name": "actualMessages",
          "type": "uint256"
        }
      ],
      "name": "OPP_TooManyMessages",
      "type": "error"
    },
    {
      "inputs": [
        {
          "internalType": "address",
          "name": "sender",
          "type": "address"
        },
        {
          "internalType": "AttestationType",
          "name": "attestationType",
          "type": "uint16"
        }
      ],
      "name": "OPP_UnauthorizedAttestationType",
      "type": "error"
    },
    {
      "inputs": [
        {
          "internalType": "AttestationType",
          "name": "attestationType",
          "type": "uint16"
        }
      ],
      "name": "OPP_UnhandledAttestationType",
      "type": "error"
    },
    {
      "inputs": [],
      "name": "OPP_ZeroTag",
      "type": "error"
    },
    {
      "inputs": [],
      "name": "UUPSUnauthorizedCallContext",
      "type": "error"
    },
    {
      "inputs": [
        {
          "internalType": "bytes32",
          "name": "slot",
          "type": "bytes32"
        }
      ],
      "name": "UUPSUnsupportedProxiableUUID",
      "type": "error"
    },
    {
      "anonymous": false,
      "inputs": [
        {
          "indexed": false,
          "internalType": "bytes",
          "name": "messageID",
          "type": "bytes"
        },
        {
          "indexed": false,
          "internalType": "AttestationType",
          "name": "attestationType",
          "type": "uint16"
        },
        {
          "indexed": false,
          "internalType": "uint64",
          "name": "sequenceNumber",
          "type": "uint64"
        }
      ],
      "name": "AttestationBlackholed",
      "type": "event"
    },
    {
      "anonymous": false,
      "inputs": [
        {
          "indexed": true,
          "internalType": "address",
          "name": "handler",
          "type": "address"
        },
        {
          "indexed": false,
          "internalType": "bytes",
          "name": "messageID",
          "type": "bytes"
        },
        {
          "indexed": false,
          "internalType": "AttestationType",
          "name": "attestationType",
          "type": "uint16"
        },
        {
          "indexed": false,
          "internalType": "uint64",
          "name": "sequenceNumber",
          "type": "uint64"
        }
      ],
      "name": "AttestationDelivered",
      "type": "event"
    },
    {
      "anonymous": false,
      "inputs": [
        {
          "indexed": true,
          "internalType": "AttestationType",
          "name": "attestationType",
          "type": "uint16"
        },
        {
          "indexed": false,
          "internalType": "address",
          "name": "handler",
          "type": "address"
        },
        {
          "indexed": false,
          "internalType": "address",
          "name": "oldHandler",
          "type": "address"
        }
      ],
      "name": "AttestationHandlerSet",
      "type": "event"
    },
    {
      "anonymous": false,
      "inputs": [
        {
          "indexed": false,
          "internalType": "address",
          "name": "authority",
          "type": "address"
        }
      ],
      "name": "AuthorityUpdated",
      "type": "event"
    },
    {
      "anonymous": false,
      "inputs": [
        {
          "indexed": false,
          "internalType": "uint32",
          "name": "epochIndex",
          "type": "uint32"
        }
      ],
      "name": "EpochComplete",
      "type": "event"
    },
    {
      "anonymous": false,
      "inputs": [
        {
          "indexed": true,
          "internalType": "uint32",
          "name": "epochIndex",
          "type": "uint32"
        },
        {
          "indexed": false,
          "internalType": "bytes32",
          "name": "epochHash",
          "type": "bytes32"
        },
        {
          "indexed": false,
          "internalType": "uint32",
          "name": "deliveryCount",
          "type": "uint32"
        }
      ],
      "name": "EpochConsensus",
      "type": "event"
    },
    {
      "anonymous": false,
      "inputs": [
        {
          "indexed": true,
          "internalType": "uint32",
          "name": "epochIndex",
          "type": "uint32"
        },
        {
          "indexed": true,
          "internalType": "address",
          "name": "operator_",
          "type": "address"
        },
        {
          "indexed": false,
          "internalType": "bytes32",
          "name": "epochHash",
          "type": "bytes32"
        }
      ],
      "name": "EpochDelivery",
      "type": "event"
    },
    {
      "anonymous": false,
      "inputs": [
        {
          "indexed": false,
          "internalType": "uint32",
          "name": "epochIndex",
          "type": "uint32"
        },
        {
          "indexed": false,
          "internalType": "bytes32",
          "name": "epochHash",
          "type": "bytes32"
        },
        {
          "indexed": false,
          "internalType": "uint256",
          "name": "messageCount",
          "type": "uint256"
        }
      ],
      "name": "EpochReceived",
      "type": "event"
    },
    {
      "anonymous": false,
      "inputs": [
        {
          "indexed": false,
          "internalType": "uint64",
          "name": "version",
          "type": "uint64"
        }
      ],
      "name": "Initialized",
      "type": "event"
    },
    {
      "anonymous": false,
      "inputs": [
        {
          "indexed": false,
          "internalType": "bytes",
          "name": "messageID",
          "type": "bytes"
        },
        {
          "indexed": false,
          "internalType": "uint64",
          "name": "attestationCount",
          "type": "uint64"
        }
      ],
      "name": "MessageProcessed",
      "type": "event"
    },
    {
      "anonymous": false,
      "inputs": [
        {
          "indexed": false,
          "internalType": "uint32",
          "name": "epochIndex",
          "type": "uint32"
        },
        {
          "indexed": false,
          "internalType": "bytes",
          "name": "firstMessageID",
          "type": "bytes"
        },
        {
          "indexed": false,
          "internalType": "bytes",
          "name": "lastMessageID",
          "type": "bytes"
        }
      ],
      "name": "MessagesReceived",
      "type": "event"
    },
    {
      "anonymous": false,
      "inputs": [
        {
          "indexed": true,
          "internalType": "address",
          "name": "implementation",
          "type": "address"
        }
      ],
      "name": "Upgraded",
      "type": "event"
    },
    {
      "inputs": [],
      "name": "MIN_SIG_WEIGHT",
      "outputs": [
        {
          "internalType": "uint256",
          "name": "",
          "type": "uint256"
        }
      ],
      "stateMutability": "view",
      "type": "function"
    },
    {
      "inputs": [],
      "name": "UPGRADE_INTERFACE_VERSION",
      "outputs": [
        {
          "internalType": "string",
          "name": "",
          "type": "string"
        }
      ],
      "stateMutability": "view",
      "type": "function"
    },
    {
      "inputs": [],
      "name": "activeGroupIndex",
      "outputs": [
        {
          "internalType": "uint32",
          "name": "",
          "type": "uint32"
        }
      ],
      "stateMutability": "view",
      "type": "function"
    },
    {
      "inputs": [
        {
          "internalType": "AttestationType",
          "name": "",
          "type": "uint16"
        }
      ],
      "name": "attestationHandlers",
      "outputs": [
        {
          "internalType": "contract IOPPReceiver",
          "name": "",
          "type": "address"
        }
      ],
      "stateMutability": "view",
      "type": "function"
    },
    {
      "inputs": [],
      "name": "authority",
      "outputs": [
        {
          "internalType": "address",
          "name": "",
          "type": "address"
        }
      ],
      "stateMutability": "view",
      "type": "function"
    },
    {
      "inputs": [
        {
          "internalType": "uint256",
          "name": "",
          "type": "uint256"
        },
        {
          "internalType": "uint256",
          "name": "",
          "type": "uint256"
        }
      ],
      "name": "batchOpGroups",
      "outputs": [
        {
          "internalType": "address",
          "name": "",
          "type": "address"
        }
      ],
      "stateMutability": "view",
      "type": "function"
    },
    {
      "inputs": [],
      "name": "consensusReached",
      "outputs": [
        {
          "internalType": "bool",
          "name": "",
          "type": "bool"
        }
      ],
      "stateMutability": "view",
      "type": "function"
    },
    {
      "inputs": [],
      "name": "consensusThreshold",
      "outputs": [
        {
          "internalType": "uint32",
          "name": "",
          "type": "uint32"
        }
      ],
      "stateMutability": "view",
      "type": "function"
    },
    {
      "inputs": [
        {
          "internalType": "uint32",
          "name": "",
          "type": "uint32"
        },
        {
          "internalType": "address",
          "name": "",
          "type": "address"
        }
      ],
      "name": "epochDeliveries",
      "outputs": [
        {
          "internalType": "bytes32",
          "name": "",
          "type": "bytes32"
        }
      ],
      "stateMutability": "view",
      "type": "function"
    },
    {
      "inputs": [
        {
          "internalType": "uint32",
          "name": "",
          "type": "uint32"
        }
      ],
      "name": "epochDeliveryCount",
      "outputs": [
        {
          "internalType": "uint32",
          "name": "",
          "type": "uint32"
        }
      ],
      "stateMutability": "view",
      "type": "function"
    },
    {
      "inputs": [
        {
          "internalType": "bytes",
          "name": "data",
          "type": "bytes"
        }
      ],
      "name": "epochIn",
      "outputs": [],
      "stateMutability": "nonpayable",
      "type": "function"
    },
    {
      "inputs": [
        {
          "internalType": "address",
          "name": "oppManager",
          "type": "address"
        }
      ],
      "name": "initialize",
      "outputs": [],
      "stateMutability": "nonpayable",
      "type": "function"
    },
    {
      "inputs": [
        {
          "internalType": "address",
          "name": "operator_",
          "type": "address"
        }
      ],
      "name": "isActiveOperator",
      "outputs": [
        {
          "internalType": "bool",
          "name": "",
          "type": "bool"
        }
      ],
      "stateMutability": "view",
      "type": "function"
    },
    {
      "inputs": [],
      "name": "isConsumingScheduledOp",
      "outputs": [
        {
          "internalType": "bytes4",
          "name": "",
          "type": "bytes4"
        }
      ],
      "stateMutability": "view",
      "type": "function"
    },
    {
      "inputs": [],
      "name": "lastMessageID",
      "outputs": [
        {
          "internalType": "bytes32",
          "name": "",
          "type": "bytes32"
        }
      ],
      "stateMutability": "view",
      "type": "function"
    },
    {
      "inputs": [
        {
          "components": [
            {
              "components": [
                {
                  "components": [
                    {
                      "components": [
                        {
                          "internalType": "ChainKind",
                          "name": "kind",
                          "type": "uint8"
                        },
                        {
                          "internalType": "uint32",
                          "name": "id",
                          "type": "uint32"
                        }
                      ],
                      "internalType": "struct ChainId",
                      "name": "start",
                      "type": "tuple"
                    },
                    {
                      "components": [
                        {
                          "internalType": "ChainKind",
                          "name": "kind",
                          "type": "uint8"
                        },
                        {
                          "internalType": "uint32",
                          "name": "id",
                          "type": "uint32"
                        }
                      ],
                      "internalType": "struct ChainId",
                      "name": "end",
                      "type": "tuple"
                    }
                  ],
                  "internalType": "struct Endpoints",
                  "name": "endpoints",
                  "type": "tuple"
                },
                {
                  "internalType": "bytes",
                  "name": "messageId",
                  "type": "bytes"
                },
                {
                  "internalType": "bytes",
                  "name": "previousMessageId",
                  "type": "bytes"
                },
                {
                  "components": [
                    {
                      "internalType": "Endianness",
                      "name": "endianness",
                      "type": "uint8"
                    },
                    {
                      "internalType": "HashAlgorithm",
                      "name": "hashAlgorithm",
                      "type": "uint8"
                    },
                    {
                      "internalType": "LengthEncoding",
                      "name": "lengthEncoding",
                      "type": "uint8"
                    }
                  ],
                  "internalType": "struct EncodingFlags",
                  "name": "encodingFlags",
                  "type": "tuple"
                },
                {
                  "internalType": "uint32",
                  "name": "payloadSize",
                  "type": "uint32"
                },
                {
                  "internalType": "bytes",
                  "name": "payloadChecksum",
                  "type": "bytes"
                },
                {
                  "internalType": "uint64",
                  "name": "timestamp",
                  "type": "uint64"
                },
                {
                  "internalType": "bytes",
                  "name": "headerChecksum",
                  "type": "bytes"
                }
              ],
              "internalType": "struct MessageHeader",
              "name": "header",
              "type": "tuple"
            },
            {
              "components": [
                {
                  "internalType": "uint32",
                  "name": "version",
                  "type": "uint32"
                },
                {
                  "components": [
                    {
                      "internalType": "AttestationType",
                      "name": "type_",
                      "type": "uint16"
                    },
                    {
                      "internalType": "uint32",
                      "name": "dataSize",
                      "type": "uint32"
                    },
                    {
                      "internalType": "bytes",
                      "name": "data",
                      "type": "bytes"
                    }
                  ],
                  "internalType": "struct AttestationEntry[]",
                  "name": "attestations",
                  "type": "tuple[]"
                }
              ],
              "internalType": "struct MessagePayload",
              "name": "payload",
              "type": "tuple"
            }
          ],
          "internalType": "struct Message[]",
          "name": "messages",
          "type": "tuple[]"
        },
        {
          "components": [
            {
              "internalType": "bytes32[]",
              "name": "proof",
              "type": "bytes32[]"
            },
            {
              "internalType": "uint8[]",
              "name": "ops",
              "type": "uint8[]"
            },
            {
              "internalType": "uint256",
              "name": "maxStack",
              "type": "uint256"
            }
          ],
          "internalType": "struct MerkleProof",
          "name": "merkleProof",
          "type": "tuple"
        }
      ],
      "name": "messagesIn",
      "outputs": [],
      "stateMutability": "nonpayable",
      "type": "function"
    },
    {
      "inputs": [],
      "name": "nextEpochIndex",
      "outputs": [
        {
          "internalType": "uint32",
          "name": "",
          "type": "uint32"
        }
      ],
      "stateMutability": "view",
      "type": "function"
    },
    {
      "inputs": [],
      "name": "operatorRegistry",
      "outputs": [
        {
          "internalType": "contract OperatorRegistry",
          "name": "",
          "type": "address"
        }
      ],
      "stateMutability": "view",
      "type": "function"
    },
    {
      "inputs": [],
      "name": "oppContract",
      "outputs": [
        {
          "internalType": "contract IOPP",
          "name": "",
          "type": "address"
        }
      ],
      "stateMutability": "view",
      "type": "function"
    },
    {
      "inputs": [],
      "name": "pendingEpoch",
      "outputs": [
        {
          "internalType": "bytes",
          "name": "envelopeHash",
          "type": "bytes"
        },
        {
          "components": [
            {
              "components": [
                {
                  "internalType": "ChainKind",
                  "name": "kind",
                  "type": "uint8"
                },
                {
                  "internalType": "uint32",
                  "name": "id",
                  "type": "uint32"
                }
              ],
              "internalType": "struct ChainId",
              "name": "start",
              "type": "tuple"
            },
            {
              "components": [
                {
                  "internalType": "ChainKind",
                  "name": "kind",
                  "type": "uint8"
                },
                {
                  "internalType": "uint32",
                  "name": "id",
                  "type": "uint32"
                }
              ],
              "internalType": "struct ChainId",
              "name": "end",
              "type": "tuple"
            }
          ],
          "internalType": "struct Endpoints",
          "name": "endpoints",
          "type": "tuple"
        },
        {
          "internalType": "uint64",
          "name": "epochTimestamp",
          "type": "uint64"
        },
        {
          "internalType": "uint32",
          "name": "epochIndex",
          "type": "uint32"
        },
        {
          "internalType": "uint32",
          "name": "epochEnvelopeIndex",
          "type": "uint32"
        },
        {
          "internalType": "bytes",
          "name": "merkle",
          "type": "bytes"
        },
        {
          "internalType": "bytes",
          "name": "previousEnvelopeHash",
          "type": "bytes"
        },
        {
          "internalType": "bytes",
          "name": "startMessageId",
          "type": "bytes"
        },
        {
          "internalType": "bytes",
          "name": "endMessageId",
          "type": "bytes"
        }
      ],
      "stateMutability": "view",
      "type": "function"
    },
    {
      "inputs": [],
      "name": "pendingEpochHash",
      "outputs": [
        {
          "internalType": "bytes32",
          "name": "",
          "type": "bytes32"
        }
      ],
      "stateMutability": "view",
      "type": "function"
    },
    {
      "inputs": [],
      "name": "pendingMessageCount",
      "outputs": [
        {
          "internalType": "uint256",
          "name": "",
          "type": "uint256"
        }
      ],
      "stateMutability": "view",
      "type": "function"
    },
    {
      "inputs": [],
      "name": "previousEpochHash",
      "outputs": [
        {
          "internalType": "bytes32",
          "name": "",
          "type": "bytes32"
        }
      ],
      "stateMutability": "view",
      "type": "function"
    },
    {
      "inputs": [],
      "name": "proxiableUUID",
      "outputs": [
        {
          "internalType": "bytes32",
          "name": "",
          "type": "bytes32"
        }
      ],
      "stateMutability": "view",
      "type": "function"
    },
    {
      "inputs": [],
      "name": "rosterInitialized",
      "outputs": [
        {
          "internalType": "bool",
          "name": "",
          "type": "bool"
        }
      ],
      "stateMutability": "view",
      "type": "function"
    },
    {
      "inputs": [
        {
          "internalType": "AttestationType",
          "name": "attestationType",
          "type": "uint16"
        },
        {
          "internalType": "address",
          "name": "handler",
          "type": "address"
        }
      ],
      "name": "setAttestationHandler",
      "outputs": [],
      "stateMutability": "nonpayable",
      "type": "function"
    },
    {
      "inputs": [
        {
          "internalType": "address",
          "name": "newAuthority",
          "type": "address"
        }
      ],
      "name": "setAuthority",
      "outputs": [],
      "stateMutability": "nonpayable",
      "type": "function"
    },
    {
      "inputs": [
        {
          "internalType": "uint32",
          "name": "threshold",
          "type": "uint32"
        }
      ],
      "name": "setConsensusThreshold",
      "outputs": [],
      "stateMutability": "nonpayable",
      "type": "function"
    },
    {
      "inputs": [
        {
          "internalType": "address",
          "name": "opp",
          "type": "address"
        }
      ],
      "name": "setOPPContract",
      "outputs": [],
      "stateMutability": "nonpayable",
      "type": "function"
    },
    {
      "inputs": [
        {
          "internalType": "address",
          "name": "registry",
          "type": "address"
        }
      ],
      "name": "setOperatorRegistry",
      "outputs": [],
      "stateMutability": "nonpayable",
      "type": "function"
    },
    {
      "inputs": [
        {
          "internalType": "address",
          "name": "newImplementation",
          "type": "address"
        },
        {
          "internalType": "bytes",
          "name": "data",
          "type": "bytes"
        }
      ],
      "name": "upgradeToAndCall",
      "outputs": [],
      "stateMutability": "payable",
      "type": "function"
    }
  ],
  "bytecode": "0x60a0806040523460485730608052600163ffffffff198181600054161760005560006010556013541617601355616073908161004e823960805181818161066901526143100152f35b600080fdfe6080604052600436101561001257600080fd5b60003560e01c80630fa92c531461020757806320857e6514610202578063239e1d67146101fd5780632c92892f146101f85780633367cca5146101f3578063368f79aa146101ee57806343df05c9146101e95780634f1ef286146101e457806352d1902d146101df57806358c2225b146101da5780635c0c8f44146101d55780635d4e25ce146101d05780635ff8195e146101cb578063621fbd59146101c65780637a9e5e4b146101c15780637b778122146101bc57806380e643b6146101b75780638d9f616b146101b25780638fb36037146101ad57806399b1a19c146101a85780639d28fb86146101a3578063ad3cb1cc1461019e578063bf7e214f14610199578063c268863f14610194578063c45fdcb71461018f578063c4d66de81461018a578063cfae311814610185578063d4ef776514610180578063e3dff2af1461017b578063f552501a146101765763f9b0b5b91461017157600080fd5b611b3b565b6119f3565b6115d8565b611403565b610c93565b610b67565b610af0565b610a5d565b610a27565b6109dd565b61093d565b610918565b6108c5565b610888565b610863565b61080a565b61078f565b610771565b61074d565b61072f565b6106ea565b6106c1565b610656565b610549565b61040b565b6103cf565b6103a2565b610384565b610360565b6102b9565b610235565b6004359063ffffffff8216820361021f57565b600080fd5b359063ffffffff8216820361021f57565b3461021f57602036600319011261021f57602063ffffffff8061025661020c565b166000526012825260406000205416604051908152f35b6004359061ffff8216820361021f57565b359061ffff8216820361021f57565b602435906001600160a01b038216820361021f57565b600435906001600160a01b038216820361021f57565b3461021f57604036600319011261021f576102d261026d565b61ffff6102dd61028d565b916102e8363361341c565b16906000918083526005602052807f46d568db0216a0215fe7f56360f9fa1a002c4bf0773add9cd62cd06eff160189604060018060a01b03948582882054169582519116958682526020820152a2825260056020526040822080546001600160a01b031916909117905580f35b600091031261021f57565b3461021f57600036600319011261021f57602063ffffffff60005416604051908152f35b3461021f57600036600319011261021f576020601054604051908152f35b3461021f57602036600319011261021f5760206103c56103c06102a3565b611b5f565b6040519015158152f35b3461021f57602036600319011261021f5763ffffffff6103ed61020c565b6103f7363361341c565b1663ffffffff196013541617601355600080f35b3461021f57600036600319011261021f57602060405160008152f35b634e487b7160e01b600052604160045260246000fd5b6001600160401b03811161045057604052565b610427565b604081019081106001600160401b0382111761045057604052565b606081019081106001600160401b0382111761045057604052565b602081019081106001600160401b0382111761045057604052565b90601f801991011681019081106001600160401b0382111761045057604052565b6040519061010082018281106001600160401b0382111761045057604052565b6001600160401b03811161045057601f01601f191660200190565b81601f8201121561021f57803590610519826104e7565b9261052760405194856104a6565b8284526020838301011161021f57816000926020809301838601378301015290565b604036600319011261021f5761055d6102a3565b6024356001600160401b03811161021f5761057c903690600401610502565b90610585614306565b61058f363361341c565b610597614306565b6040516352d1902d60e01b8152916020836004816001600160a01b0386165afa60009381610625575b506105ea57604051634c9c8ce360e01b81526001600160a01b0383166004820152602490fd5b0390fd5b90600080516020615ffe833981519152830361060c5761060a9250614d16565b005b604051632a87526960e21b815260048101849052602490fd5b61064891945060203d60201161064f575b61064081836104a6565b810190613020565b92386105c0565b503d610636565b3461021f57600036600319011261021f577f00000000000000000000000000000000000000000000000000000000000000006001600160a01b031630036106af576020604051600080516020615ffe8339815191528152f35b60405163703e46dd60e11b8152600490fd5b3461021f57600036600319011261021f576003546040516001600160a01b039091168152602090f35b3461021f57602036600319011261021f576107036102a3565b61070d363361341c565b600480546001600160a01b0319166001600160a01b0392909216919091179055005b3461021f57600036600319011261021f576020600254604051908152f35b3461021f57600036600319011261021f57602063ffffffff60155416604051908152f35b3461021f57600036600319011261021f576020600154604051908152f35b3461021f57602036600319011261021f576107a86102a3565b600080516020615fde833981519152546001600160a01b039190821633036107f357803b156107da5761060a90613536565b6040516361798f2f60e11b815291166004820152602490fd5b60405162d1953b60e31b8152336004820152602490fd5b3461021f57604036600319011261021f57602061085a61082861020c565b63ffffffff61083561028d565b91166000526011835260406000209060018060a01b0316600052602052604060002090565b54604051908152f35b3461021f57600036600319011261021f57602060155460ff60405191831c1615158152f35b3461021f57602036600319011261021f5761ffff6108a461026d565b166000526005602052602060018060a01b0360406000205416604051908152f35b3461021f57600036600319011261021f57600080516020615fde8339815191525460a01c60ff161561090f576020638fb3603760e01b5b6040516001600160e01b03199091168152f35b602060006108fc565b3461021f57600036600319011261021f57602060135460ff60405191831c1615158152f35b3461021f57602036600319011261021f576109566102a3565b610960363361341c565b600380546001600160a01b0319166001600160a01b0392909216919091179055005b6040519061098f8261048b565b60008252565b60005b8381106109a85750506000910152565b8181015183820152602001610998565b906020916109d181518092818552858086019101610995565b601f01601f1916010190565b3461021f57600036600319011261021f57610a236040516109fd81610455565b60058152640352e302e360dc1b60208201526040519182916020835260208301906109b8565b0390f35b3461021f57600036600319011261021f57600080516020615fde833981519152546040516001600160a01b039091168152602090f35b3461021f57600036600319011261021f576004546040516001600160a01b039091168152602090f35b634e487b7160e01b600052603260045260246000fd5b601454811015610ad35760146000527fce6d7b5282bd9a3661ae061feed1dbda4e52ab073b1f9285be6e155d9c38d4ec0190600090565b610a86565b8054821015610ad35760005260206000200190600090565b3461021f57604036600319011261021f576004356024359060145481101561021f5760146000527fce6d7b5282bd9a3661ae061feed1dbda4e52ab073b1f9285be6e155d9c38d4ec01805482101561021f57602091610b4e91610ad8565b905460405160039290921b1c6001600160a01b03168152f35b3461021f57602036600319011261021f57610b806102a3565b60008051602061601e83398151915254906001600160401b0360ff8360401c1615921680159081610c8b575b6001149081610c81575b159081610c78575b50610c665760008051602061601e833981519152805467ffffffffffffffff19166001179055610bf29082610c4157611bf2565b610bf857005b60008051602061601e833981519152805460ff60401b19169055604051600181527fc7f505b2f371ae2175ee4913f4499e1f2633a7b5936321eed1cdaeb6115181d290602090a1005b60008051602061601e833981519152805460ff60401b1916600160401b179055611bf2565b60405163f92ee8a960e01b8152600490fd5b90501538610bbe565b303b159150610bb6565b839150610bac565b3461021f57602036600319011261021f57600480356001600160401b03811161021f57610cc6610ccb9136908401610502565b61376f565b610cdc610cd733611b5f565b611c2d565b6060810190610cef825163ffffffff1690565b92600093610d01855463ffffffff1690565b63ffffffff91828216838216036110c657505060105480611084575060c08301610d2b8151613a00565b8061104c5750610d3c600254613a14565b90525b610d4883613a2a565b90610d95610d8e33610d77610d61895163ffffffff1690565b63ffffffff166000526011602052604060002090565b9060018060a01b0316600052602052604060002090565b5415611c88565b81610dab33610d77610d61895163ffffffff1690565b55610e00610dd6610dc0875163ffffffff1690565b63ffffffff166000526012602052604060002090565b610dec610de7825463ffffffff1690565b611cfc565b63ffffffff1663ffffffff19825416179055565b610e1a610e11865163ffffffff1690565b63ffffffff1690565b6040518381523391907fcafc00e7c35f462868d78e8228850e885bd0870978967c446c6bb67122a3fb2890602090a3610e67610e5d610dc0875163ffffffff1690565b5463ffffffff1690565b81610e7a610e1160135463ffffffff1690565b91161015610e86578580f35b7fa77ed82a4a8c2f7b412630e92b1c8f59e6645b05820a8b0ed43ae5fac990491c90610eb4859697956128a2565b610ebd83600f55565b610eec610ed6610ed1895163ffffffff1690565b612ac9565b63ffffffff1663ffffffff196000541617600055565b610f0664010000000064ff00000000196013541617601355565b865163ffffffff16610f4f610f2e610e5d8363ffffffff166000526012602052604060002090565b60405193849316958390929163ffffffff6020916040840195845216910152565b0390a2610120829301925b83518051821015610f815790610f7b610f7582600194612aeb565b51613f99565b01610f5a565b50509092839250610fdc610fc57fe784b22f2061de501b77364cab02ee109528afe4ddc8d423d076f6b49021b58e92610fbb600f54600255565b5163ffffffff1690565b60405163ffffffff90911681529081906020820190565b0390a18054610ffb906001600160a01b03165b6001600160a01b031690565b803b1561104857829160405180948193633e31f74b60e21b83525af180156110435761102a575b808080808580f35b8061103761103d9261043d565b80610355565b38611022565b612aff565b5050fd5b600254915081810361105f575050610d3f565b60408051631d734b9160e01b8152808601938452602084019290925290918291010390fd5b826105e661109b60095463ffffffff9060401c1690565b6040805163172cc05360e31b815263ffffffff90921693820193845260208401949094529283920190565b604080516307d3e83d60e51b815263ffffffff938416868201908152929093166020830152908290030190fd5b6001600160401b0381116104505760051b60200190565b60ff81160361021f57565b919082604091031261021f5760405161112d81610455565b602061114881839580356111408161110a565b855201610224565b910152565b919060808382031261021f5760206111486040519261116b84610455565b604084966111798382611115565b865201611115565b919082606091031261021f5760405161119981610470565b604080829480356111a98161110a565b845260208101356111b98161110a565b60208501520135916111ca8361110a565b0152565b35906001600160401b038216820361021f57565b919091604090818185031261021f5781516111fc81610455565b809461120783610224565b8252602092838101356001600160401b039182821161021f57019180601f8401121561021f57823590611239826110f3565b96611246815198896104a6565b828852868089019360051b8601019482861161021f57878101935b86851061127357505050505050500152565b843586811161021f5782019060609081601f19848803011261021f5784519161129b83610470565b6112a68c850161027e565b83526112b3868501610224565b8c8401528301359188831161021f576112d3878d80969581960101610502565b86820152815201940193611261565b9080601f8301121561021f5760209082356112fc816110f3565b9361130a60405195866104a6565b81855260208086019260051b82010192831161021f57602001905b828210611333575050505090565b83809183356113418161110a565b815201910190611325565b91909160608184031261021f576040519061136682610470565b81938135916001600160401b039283811161021f57810182601f8201121561021f578035602091611396826110f3565b916113a460405193846104a6565b808352838084019160051b8301019186831161021f5784809101915b8383106113f3575050505085528082013593841161021f576113e860409493859484016112e2565b908501520135910152565b82358152918101918591016113c0565b3461021f5760408060031936011261021f576001600160401b039060043582811161021f573660238201121561021f57806004013591602491611445846110f3565b9361145360405195866104a6565b80855260209284602087019260051b8401019236841161021f57858101925b84841061149a578635888a821161021f5761149461060a92369060040161134c565b90612b0b565b833589811161021f578201602319918483833603011261021f578451926114c084610455565b898301358c811161021f576101a090840191823603011261021f576114e36104c7565b906114f0368c830161114d565b825260a48101358d811161021f5761150d908c3691840101610502565b8a83015260c48101358d811161021f5761152c908c3691840101610502565b8783015261153d3660e48301611181565b606083015261154f6101448201610224565b60808301526101648101358d811161021f57611570908c3691840101610502565b60a083015261158261018482016111ce565b60c08301526101a4810135908d821161021f578b6115a39236920101610502565b60e082015283526044820135928b841161021f576115c98994938b8695369201016111e2565b83820152815201930192611472565b3461021f57600036600319011261021f576020600f54604051908152f35b90600182811c92168015611626575b602083101461161057565b634e487b7160e01b600052602260045260246000fd5b91607f1691611605565b60405190600082600a5491611644836115f6565b808352926020906001908181169081156116d25750600114611671575b505061166f925003836104a6565b565b915092600a6000527fc65a7bb8d6351c1cf70c95a316cc6a92839c986682d98bc35f958f4883f9d2a8936000925b8284106116ba575061166f9450505081016020013880611661565b8554888501830152948501948794509281019261169f565b9150506020925061166f94915060ff191682840152151560051b8201013880611661565b60405190600082600b549161170a836115f6565b808352926020906001908181169081156116d2575060011461173457505061166f925003836104a6565b915092600b6000527f0175b7a638427703f0dbe7bb9bbf987a2551717b34e79f33b5b1008d1fa01db9936000925b82841061177d575061166f9450505081016020013880611661565b85548885018301529485019487945092810192611762565b60405190600082600c54916117a9836115f6565b808352926020906001908181169081156116d257506001146117d357505061166f925003836104a6565b915092600c6000527fdf6966c971051c3d54ec59162606531493a51404a002842f56009d7e5cf4a8c7936000925b82841061181c575061166f9450505081016020013880611661565b85548885018301529485019487945092810192611801565b60405190600082600d5491611848836115f6565b808352926020906001908181169081156116d2575060011461187257505061166f925003836104a6565b915092600d6000527fd7b6990105719101dabeb77144f2a3385c8033acd3af97e9423a695e81ad1eb5936000925b8284106118bb575061166f9450505081016020013880611661565b855488850183015294850194879450928101926118a0565b604051906118e082610455565b60075460ff8116835260081c63ffffffff166020830152565b6040519061190682610455565b81602063ffffffff60085460ff8116845260081c16910152565b9794956119b56119e19763ffffffff6119d2978c60a06119f09f9d996001600160401b039061199e60206119606119c39d9c6101808089528801906109b8565b9b611981828801825163ffffffff6020809260ff8151168552015116910152565b0151805160ff1660608701526020015163ffffffff166080860152565b169101521660c08c015263ffffffff1660e08b0152565b8882036101008a01526109b8565b908682036101208801526109b8565b908482036101408601526109b8565b916101608184039101526109b8565b90565b3461021f57600080600319360112611b385760405190808260065491611a18836115f6565b9283835260209460019186600182169182600014611b16575050600114611abc575b5050611a48925003836104a6565b60405190611a5582610455565b611a5d6118d3565b8252611a676118f9565b90820152610a2360095463ffffffff611a7e611630565b611a866116f6565b90611a8f611795565b92611a98611834565b946040519889986001600160401b03848460601c16948460401c169316918a611920565b90859250600682527ff652222313e28459528d920b65115c16c04f3efc82aaedc97be59f3f377c0d3f5b858310611afe575050611a4893508201013880611a3a565b80548389018501528794508693909201918101611ae6565b9250935050611a4894915060ff191682840152151560051b8201013880611a3a565b80fd5b3461021f57600036600319011261021f57602063ffffffff60135416604051908152f35b60155460ff8160201c1615611beb5763ffffffff16601454811015611be457611b8790610a9c565b508054919060005b838110611b9f5750505050600090565b611bc1611bac8284610ad8565b905460039190911b1c6001600160a01b031690565b6001600160a01b03848116911614611bdb57600101611b8f565b50505050600190565b5050600090565b5050600190565b611c1390611bfe614360565b611c06614360565b611c0e614360565b613536565b611c1b614360565b600163ffffffff196000541617600055565b15611c3457565b60405162461bcd60e51b815260206004820152602660248201527f63616c6c6572206973206e6f7420616e20616374697665206261746368206f7060448201526532b930ba37b960d11b6064820152608490fd5b15611c8f57565b60405162461bcd60e51b815260206004820152602960248201527f6f70657261746f7220616c72656164792064656c69766572656420666f7220746044820152680d0d2e640cae0dec6d60bb1b6064820152608490fd5b634e487b7160e01b600052601160045260246000fd5b63ffffffff809116908114611d115760010190565b611ce6565b818110611d21575050565b60008155600101611d16565b90601f8211611d3a575050565b61166f91600a6000527fc65a7bb8d6351c1cf70c95a316cc6a92839c986682d98bc35f958f4883f9d2a8906020601f840160051c83019310611d84575b601f0160051c0190611d16565b9091508190611d77565b90601f8211611d9b575050565b61166f91600b6000527f0175b7a638427703f0dbe7bb9bbf987a2551717b34e79f33b5b1008d1fa01db9906020601f840160051c83019310611d8457601f0160051c0190611d16565b90601f8211611df1575050565b61166f91600c6000527fdf6966c971051c3d54ec59162606531493a51404a002842f56009d7e5cf4a8c7906020601f840160051c83019310611d8457601f0160051c0190611d16565b90601f8211611e47575050565b61166f91600d6000527fd7b6990105719101dabeb77144f2a3385c8033acd3af97e9423a695e81ad1eb5906020601f840160051c83019310611d8457601f0160051c0190611d16565b90601f8211611e9d575050565b61166f9160066000527ff652222313e28459528d920b65115c16c04f3efc82aaedc97be59f3f377c0d3f906020601f840160051c83019310611d8457601f0160051c0190611d16565b9190601f8111611ef557505050565b61166f926000526020600020906020601f840160051c83019310611d8457601f0160051c0190611d16565b9081516001600160401b03811161045057611f4581611f40600a546115f6565b611d2d565b602080601f8311600114611f8857508190611f789394600092611f7d575b50508160011b916000199060031b1c19161790565b600a55565b015190503880611f63565b90601f19831694611fbb600a6000527fc65a7bb8d6351c1cf70c95a316cc6a92839c986682d98bc35f958f4883f9d2a890565b926000905b878210611ff8575050836001959610611fdf575b505050811b01600a55565b015160001960f88460031b161c19169055388080611fd4565b80600185968294968601518155019501930190611fc0565b9081516001600160401b0381116104505761203581612030600b546115f6565b611d8e565b602080601f831160011461206c575081906120679394600092611f7d5750508160011b916000199060031b1c19161790565b600b55565b90601f1983169461209f600b6000527f0175b7a638427703f0dbe7bb9bbf987a2551717b34e79f33b5b1008d1fa01db990565b926000905b8782106120dc5750508360019596106120c3575b505050811b01600b55565b015160001960f88460031b161c191690553880806120b8565b806001859682949686015181550195019301906120a4565b9081516001600160401b0381116104505761211981612114600c546115f6565b611de4565b602080601f83116001146121505750819061214b9394600092611f7d5750508160011b916000199060031b1c19161790565b600c55565b90601f19831694612183600c6000527fdf6966c971051c3d54ec59162606531493a51404a002842f56009d7e5cf4a8c790565b926000905b8782106121c05750508360019596106121a7575b505050811b01600c55565b015160001960f88460031b161c1916905538808061219c565b80600185968294968601518155019501930190612188565b9081516001600160401b038111610450576121fd816121f8600d546115f6565b611e3a565b602080601f83116001146122345750819061222f9394600092611f7d5750508160011b916000199060031b1c19161790565b600d55565b90601f19831694612267600d6000527fd7b6990105719101dabeb77144f2a3385c8033acd3af97e9423a695e81ad1eb590565b926000905b8782106122a457505083600195961061228b575b505050811b01600d55565b015160001960f88460031b161c19169055388080612280565b8060018596829496860151815501950193019061226c565b91909182516001600160401b038111610450576122e3816122dd84546115f6565b84611ee6565b602080601f831160011461231a57508190612316939495600092611f7d5750508160011b916000199060031b1c19161790565b9055565b90601f1983169561233085600052602060002090565b926000905b88821061236d57505083600195969710612354575b505050811b019055565b015160001960f88460031b161c1916905538808061234a565b80600185968294968601518155019501930190612335565b81518051825460ff191660ff9190911617825560200151602080600184549464ffffffff0095869564ffffffff001996879160081b169116178155019401516123dc60ff825116869060ff1660ff19825416179055565b01519183549260081b169116179055565b6123f781546115f6565b9081612401575050565b81601f60009311600114612413575055565b908083918252612432601f60208420940160051c840160018501611d16565b5555565b600160401b82116104505780549082815581831061245357505050565b6001916001600160ff1b038082168203611d115784168403611d115760009160005260206000209060011b81019360011b015b8381106124935750505050565b8082600292556124a48482016123ed565b01612486565b6000906000815560018091019182549260008155836124ca575b50505050565b6001600160ff1b0384168403611d115760005260206000209260011b8301925b838110156124c4578082600292556125038482016123ed565b016124ea565b8151815463ffffffff191663ffffffff91909116178155600180910191602080910151908082519261253b8487612436565b0190600094855280852085925b8484106125585750505050505050565b805161ffff81511683549065ffffffff00008684015160101b169165ffffffffffff19161717835560408784019101518051926001600160401b038411610450578286926125ab866122dd8d97546115f6565b83908c601f88116001146125ed57966125de9281926002989992611f7d5750508160011b916000199060031b1c19161790565b90555b01920193019290612548565b969190601f19831661260485600052602060002090565b985b8181106126445750918798918460029995941061262b575b505050811b0190556125e1565b015160001960f88460031b161c1916905538808061261e565b838301518a5597909801978d978b979384019301612606565b6009602061166f9361276560e08251612677815188612385565b61268785820151600289016122bc565b6126986040820151600389016122bc565b6126e66060820151600489018151815460ff191660ff91909116178155906020810151825460409092015162ffff001990921660089190911b61ff00161760109190911b62ff000016179055565b6127136126fa608083015163ffffffff1690565b600589019063ffffffff1663ffffffff19825416179055565b61272460a0820151600689016122bc565b61275a61273b60c08301516001600160401b031690565b60078901906001600160401b03166001600160401b0319825416179055565b0151600886016122bc565b01519101612509565b805190600160401b821161045057600e5482600e558083106127e7575b50600e6000526020908101907fbb7b4a454dc3493923482f07822329ed19e8244eff582cc204f8554c3620c3fd6000925b8484106127ca575050505050565b600b83826127db600194518661265d565b019201930192906127bc565b600b9080600b0290600b820403611d115783600b02600b81048503611d1157600090600e82527fbb7b4a454dc3493923482f07822329ed19e8244eff582cc204f8554c3620c3fd92830192015b8281106128435750505061278b565b808285925582600182015561285a600282016123ed565b612866600382016123ed565b82600482015582600582015561287e600682016123ed565b826007820155612890600882016123ed565b61289c600982016124aa565b01612834565b80518051906001600160401b038211610450576128c9826128c46006546115f6565b611e90565b602090816001601f851114612a3a5750826101209361166f959361290393600092611f7d5750508160011b916000199060031b1c19161790565b6006555b61295d60208201516020908181519160ff8351166007549064ffffffff00958695015164ffffffffff1996879160081b169216171760075501519160ff83511691602060085494015160081b1692161717600855565b61299061297460408301516001600160401b031690565b6001600160401b03166001600160401b03196009541617600955565b6129c56129a4606083015163ffffffff1690565b63ffffffff60401b6009549160401b169063ffffffff60401b191617600955565b6129fe6129d9608083015163ffffffff1690565b6009805463ffffffff60601b191660609290921b63ffffffff60601b16919091179055565b612a0b60a0820151611f20565b612a1860c0820151612010565b612a2560e08201516120f4565b612a336101008201516121d8565b015161276e565b60066000529190601f1984167ff652222313e28459528d920b65115c16c04f3efc82aaedc97be59f3f377c0d3f936000905b828210612ab15750509260019285926101209661166f989610612a98575b505050811b01600655612907565b015160001960f88460031b161c19169055388080612a8a565b80600186978294978701518155019601940190612a6c565b90600163ffffffff80931601918211611d1157565b805115610ad35760200190565b8051821015610ad35760209160051b010190565b6040513d6000823e3d90fd5b612b15363361341c565b601054815190818110612fcc575050612b318193929351612fee565b9060009373__$b91d2ad766fd07dc99f56c1a0b020615bb$__945b8251811015612ddc5760209081612b638286612aeb565b51015191604092835163765809ab60e11b8152828180612b8760049586830161302f565b03818d5af490811561104357600091612dbf575b5060a09081612baa868a612aeb565b5151015151612d7e57612bbc90613a14565b90612bc78589612aeb565b51510152612c01612be7610fbb84612bdf878b612aeb565b510151614162565b6080612bf3868a612aeb565b5151019063ffffffff169052565b612c296000612c108589612aeb565b515186518093819262409a0960e81b835286830161317d565b03818d5af490811561104357600091612d5d575b5082612c498589612aeb565b5151015151612d0257938291612c8c9583612c64878b612aeb565b51510152612c728589612aeb565b5151915163b93612a760e01b81529586928392830161317d565b03818b5af490811561104357612cb0612cd492600195600091612ce5575b50613a14565b60e0612cbc8589612aeb565b515101525b612ccb8387612aeb565b51510151613a00565b612cde8287612aeb565b5201612b4c565b612cfc9150833d851161064f5761064081836104a6565b38612caa565b91929383612d108689612aeb565b5151015184815191012083518585012003612d345750505090612cd4600192612cc1565b6105e69084612d43878a612aeb565b515101519051630ca2e06d60e11b8152938493840161324a565b612d78913d8091833e612d7081836104a6565b8101906130db565b38612c3d565b90612d8d90612ccb868a612aeb565b818103612d9b575050612c01565b8551631d97afef60e31b815280840192835260208301919091529081906040010390fd5b612dd69150833d851161064f5761064081836104a6565b38612b9b565b50935090612df0612deb611630565b613a00565b73__$398d4f030862acab53d338aebf0b4256d7$__91823b1561021f57612e349260009260409760405195869485938493633723f9ef60e21b8552600485016132a3565b03915af4801561104357612fb9575b5060095460401c63ffffffff167f2cae74b52637f741120c3765ff52d7cc2c0d635ecd2dfe33e3d51d77542d105d60209182612e7e85612ade565b5151015190612eaa84612e9a612e948851613334565b88612aeb565b5151015160405193849384613350565b0390a160005b8251811015612f325780612ec9610f7560019386612aeb565b7f92a2f43bb4dec6ecbf6961abb1cfddfdb3469fce3826df9af188c3d4f44ec97b83612ef58387612aeb565b51510151612f1a8580612f08868a612aeb565b5101510151516001600160401b031690565b90612f29895192839283613381565b0390a101612eb0565b50612f6a92935090612f5c612f57612f6593612ccb612f518551613334565b85612aeb565b600155565b51601054613343565b601055565b60105415612f7457565b7fe784b22f2061de501b77364cab02ee109528afe4ddc8d423d076f6b49021b58e612fab610fc560095463ffffffff9060401c1690565b0390a161166f600f54600255565b80611037612fc69261043d565b38612e43565b604051630daf4bc160e01b815260048101919091526024810191909152604490fd5b90612ff8826110f3565b61300560405191826104a6565b8281528092613016601f19916110f3565b0190602036910137565b9081602091031261021f575190565b90602080835260609060608401908063ffffffff94858151168288015201519460408080830152865180945260808201908360808660051b8501019801956000935b8685106130845750505050505050505090565b9091929394959697999886806130c6600193868f89908f607f198a8603018d52519061ffff8251168552868201511686850152015191818a82015201906109b8565b9b9c9a01989796919091019401929190613071565b60208183031261021f578051906001600160401b03821161021f570181601f8201121561021f57805161310d816104e7565b9261311b60405194856104a6565b8184526020828401011161021f576119f09160208085019101610995565b906040602061166f9361316084825163ffffffff6020809260ff8151168552015116910152565b015191019063ffffffff6020809260ff8151168552015116910152565b906119f09160208152613194602082018351613139565b6020820151906131b26101a0928360a08401526101c08301906109b8565b9160e06132266131d4604087015195601f1996878783030160c08801526109b8565b61320060608801518487019060ff60408092828151168552826020820151166020860152015116910152565b608087015163ffffffff1661014086015260a087015186868303016101608701526109b8565b60c08601516001600160401b031661018085015294015192828503019101526109b8565b90916132616119f0936040845260408401906109b8565b9160208184039101526109b8565b90815180825260208080930193019160005b82811061328f575050505090565b835185529381019392810192600101613281565b93929091608085526132c183516060608088015260e087019061326f565b602080850151878303607f190160a089015280518084529282019591929083019060005b81811061331d57505050926133159261166f95926040606096015160c08a0152880152868203604088015261326f565b930160029052565b825160ff16885296840196918401916001016132e5565b600019810191908211611d1157565b91908203918211611d1157565b916133739063ffffffff6119f095931684526060602085015260608401906109b8565b9160408184039101526109b8565b906001600160401b036133a16020929594956040855260408501906109b8565b9416910152565b60041161021f57600090600490565b6001600160e01b031990358181169392600481106133d457505050565b60040360031b82901b16169150565b6001600160a01b0390911681526040602082018190528101829052606091806000848401376000828201840152601f01601f1916010190565b600080516020615fde8339815191528054613455906001600160a01b031661344c613446866133a8565b906133b7565b90843091614277565b90156134615750505050565b63ffffffff161561351657600080516020615fde833981519152805460ff60a01b1916600160a01b1790556134a490610fef9081905b546001600160a01b031690565b91823b1561021f576134d09260009283604051809681958294634a63ebf760e11b8452600484016133e3565b03925af1801561104357613503575b50600080516020615fde833981519152805460ff60a01b19169055388080806124c4565b806110376135109261043d565b386134df565b60405162d1953b60e31b81526001600160a01b0383166004820152602490fd5b600080516020615fde83398151915280546001600160a01b0319166001600160a01b0390921691821790556040519081527f2f658b440c35314f52658ea8a740e05b284cdc84dc9ae01e891f21b8933e7cad90602090a1565b6040519061359c82610455565b60006020838281520152565b604051906135b582610455565b816135be61358f565b8152602061114861358f565b6040519061014082018281106001600160401b03821117610450576040526060808352610120836135f96135a8565b602082015260006040820152600083820152600060808201528260a08201528260c08201528260e0820152826101008201520152565b6000198114611d115760010190565b6040519061364b82610470565b60006040838281528260208201520152565b6040519061010082018281106001600160401b0382111761045057604052606060e0836136886135a8565b815282602082015282604082015261369e61363e565b83820152600060808201528260a0820152600060c08201520152565b604051906136c782610455565b6060602083600081520152565b604051906136e182610455565b816136ea61365d565b815260206111486136ba565b90613700826110f3565b61370d60405191826104a6565b828152809261371e601f19916110f3565b019060005b82811061372f57505050565b60209061373a6136d4565b82828501015201613723565b9060048201809211611d1157565b9060088201809211611d1157565b91908201809211611d1157565b906137786135ca565b91600081519080815b8381106139b15750613792906136f6565b916101208601928352815b8181106137ab575050505050565b6137b59085614449565b90816001600160401b0391828116600a81146000146137e757505050506137dc9085614663565b919087525b9061379d565b6012810361382f575050506137ff6138289287614449565b91169061381e6138196138128484613762565b838a6144eb565b614692565b60208a0152613762565b905b6137e1565b6028810361385c57505050509061384961382a9286614449565b6001600160401b03909116604089015291565b6030810361388c57505050509061382a61387b63ffffffff9387614449565b9316606089019063ffffffff169052565b603881036138bc57505050509061382a6138ab63ffffffff9387614449565b9316608089019063ffffffff169052565b607a81036138de57505050506138d29085614663565b919060a08801526137e1565b60a2810361390057505050506138f49085614663565b919060c08801526137e1565b60f2810361392257505050506139169085614663565b919060e08801526137e1565b60fa810361394557505050506139389085614663565b91906101008801526137e1565b610142036139a157505061395c6138289287614449565b91169061399b61397e6139796139728585613762565b848b6144eb565b614598565b95875161398a8261362f565b976139958383612aeb565b52612aeb565b50613762565b613828935060071691508661438f565b6139be9085949394614449565b6101426001600160401b0383949316146139ea575b60076139e2929316908661438f565b929192613781565b60076139f86139e29361362f565b9250506139d3565b805115613a0e576020015190565b50600090565b604051906020820152602081526119f081610455565b8051916040908151613a3b8161048b565b600081528352613a49610982565b91613a526149f0565b9481518096602095868301613a669161414b565b613a6f9161414b565b0395601f19968781018252613a8490826104a6565b8551613a8f9061517b565b908351918291878301613aa19161414b565b613aaa9161414b565b038781018252613aba90826104a6565b613ac2614a07565b908351918291878301613ad49161414b565b613add9161414b565b038781018252613aed90826104a6565b84860151613afa906151cb565b908151613b0d906001600160401b031690565b613b1690614b90565b908451918291888301613b289161414b565b613b319161414b565b038881018252613b4190826104a6565b8351918291878301613b529161414b565b613b5b9161414b565b038781018252613b6b90826104a6565b613b73614a1a565b908351918291878301613b859161414b565b613b8e9161414b565b038781018252613b9e90826104a6565b858301516001600160401b0316613bb490614b90565b908351918291878301613bc69161414b565b613bcf9161414b565b038781018252613bdf90826104a6565b613be7614a2d565b908351918291878301613bf99161414b565b613c029161414b565b038781018252613c1290826104a6565b6060860151613c269063ffffffff16614b90565b908351918291878301613c389161414b565b613c419161414b565b038781018252613c5190826104a6565b613c59614a40565b908351918291878301613c6b9161414b565b613c749161414b565b038781018252613c8490826104a6565b6080860151613c989063ffffffff16614b90565b908351918291878301613caa9161414b565b613cb39161414b565b038781018252613cc390826104a6565b613ccb614a53565b908351918291878301613cdd9161414b565b613ce69161414b565b038781018252613cf690826104a6565b60a0860151613d049061517b565b908351918291878301613d169161414b565b613d1f9161414b565b038781018252613d2f90826104a6565b613d37614a66565b908351918291878301613d499161414b565b613d529161414b565b038781018252613d6290826104a6565b60c0860151613d709061517b565b908351918291878301613d829161414b565b613d8b9161414b565b038781018252613d9b90826104a6565b613da3614aac565b908351918291878301613db59161414b565b613dbe9161414b565b038781018252613dce90826104a6565b60e0860151613ddc9061517b565b908351918291878301613dee9161414b565b613df79161414b565b038781018252613e0790826104a6565b613e0f614acb565b908351918291878301613e219161414b565b613e2a9161414b565b038781018252613e3a90826104a6565b610100860151613e499061517b565b908351918291878301613e5b9161414b565b613e649161414b565b038781018252613e7490826104a6565b926000935b6101208701805151861015613f3c57613f34600192613f28613edc613ed68a613ebe968f613ed0908f613ec48f613ebe613eb1614aea565b91519b8c9485019061414b565b9061414b565b039081018852876104a6565b51612aeb565b5161533a565b613f1a8d8c613f0e8c613ebe613f01613efc88516001600160401b031690565b614b90565b915198899485019061414b565b039081018552846104a6565b88519485938c85019061414b565b038a81018352826104a6565b940193613e79565b50935095509290508151910120915290565b9193926001600160401b039061ffff613f716040946060875260608701906109b8565b9616602085015216910152565b60409061ffff6119f0949316815281602082015201906109b8565b9060005b6020908180850151015180518210156141445781613fba91612aeb565b51805161ffff16908161ee0f811461412c5761ee131461412157613ff2610fef6134978461ffff166000526005602052604060002090565b6001600160a01b0381169290919083156141035761dead84146140b35760408092015192803b1561021f578251633bbe5e5b60e21b8152936000918591829084908290614043908860048401613f7e565b03925af18015611043576001967f6615e715ef29da98af4d4b50f6beb57ec1a6a61bb207b117e5fb58632755e93794614096926140a0575b508951015192519283926001600160401b0388169184613f4e565b0390a25b01613f9d565b806110376140ad9261043d565b3861407b565b9150507f06a84e8c796b3ecc778e5832b8ba6869cc1bf4822409bfd7f852021f87256d0c915060019386510151906140fb6040519283926001600160401b0387169184613f4e565b0390a161409a565b6040516333342afb60e01b815261ffff919091166004820152602490fd5b50506001915061409a565b506001935061413f9150604001516148c0565b61409a565b5050509050565b9061415e60209282815194859201610995565b0190565b6141959161416e610982565b90614177614b0b565b613ebe6141db604092604051978891613ebe6020988985019061414b565b03966141a9601f19988981018352826104a6565b6141cf6141c0613efc610e118a5163ffffffff1690565b6040519485938985019061414b565b038781018352826104a6565b916000925b84860180515185101561426d57613ebe614263613ebe613f2889956142558d61422f6142298d60019a613ed08f61421d8f91613ebe613eb1614a07565b038681018952886104a6565b51614c11565b92613f0e614247613efc86516001600160401b031690565b8d519788938d85019061414b565b88519485938885019061414b565b94019390506141e0565b5095509350505050565b60405163b700961360e01b602082019081526001600160a01b0393841660248301529290931660448401526001600160e01b03199093166064808401919091528252600093849390928492909160a08301916001600160401b0383118484101761045057604093859385528380528360205251915afa6142f45750565b9150915051906020518060201c150290565b6001600160a01b037f00000000000000000000000000000000000000000000000000000000000000008116308114918215614344575b50506106af57565b600080516020615ffe833981519152541614159050388061433c565b60ff60008051602061601e8339815191525460401c161561437d57565b604051631afcd79f60e31b8152600490fd5b6001600160401b0392831692836143b057506143ab9250614449565b905090565b9192600181036143c6575050506119f090613754565b600281036143e457506119f0926143dc91614449565b911690613762565b6005141591506143f99050576119f090613746565b60405162461bcd60e51b815260206004820152602260248201527f50726f746f62756652756e74696d653a20756e6b6e6f776e2077697265207479604482015261706560f01b6064820152608490fd5b91908201602001906000805b608060076001865160001a94607f8616851b179601920192161561448257603f821161021f579290614455565b9293909203601f19019150565b6040519061449c82610455565b6001825260203681840137565b604051906144b682610455565b600a825260203681840137565b906144cd826104e7565b6144da60405191826104a6565b8281528092613016601f19916104e7565b91818110158061458d575b1561453c578161450591613343565b9061450f826144c3565b928261451c575b50505090565b0160005b8281101561451657602081830181015185830182015201614520565b60405162461bcd60e51b8152602060048201526024808201527f50726f746f62756652756e74696d653a20736c696365206f7574206f6620626f604482015263756e647360e01b6064820152608490fd5b5082518111156144f6565b906145a16136d4565b9160008151905b8181106145b457505050565b6145be9083614449565b90816001600160401b0391828116600a8114600014614615575050506145e761460d9285614449565b9116906146066146016145fa8484613762565b83886144eb565b614f4c565b8752613762565b905b906145a8565b60120361465357505061462b61464d9285614449565b91169061464361463e6145fa8484613762565b614e2e565b6020880152613762565b9061460f565b61464d935060071691508461438f565b91906146776001600160401b039184614449565b9116810192838211611d115761468e9184916144eb565b9190565b9061469b6135a8565b9160008151905b8181106146ae57505050565b6146b89083614449565b90816001600160401b0391828116600a8114600014614701575050506146e16146f99285614449565b9116906146066146f46145fa8484613762565b6150e9565b905b906146a2565b60120361473057505061471761472a9285614449565b9116906146436146f46145fa8484613762565b906146fb565b61472a935060071691508461438f565b601454600160401b811015610450576001810180601455811015610ad35760146000527fce6d7b5282bd9a3661ae061feed1dbda4e52ab073b1f9285be6e155d9c38d4ec0190600090565b906147b4578054600082558061479f575050565b61166f91600052602060002090810190611d16565b634e487b7160e01b600052600060045260246000fd5b60145480156148385760001981019080821015610ad3577fce6d7b5282bd9a3661ae061feed1dbda4e52ab073b1f9285be6e155d9c38d4eb906014600052018054600082558061481c575b5050601455565b61483191600052602060002090810190611d16565b3880614815565b634e487b7160e01b600052603160045260246000fd5b90602082519201516bffffffffffffffffffffffff1990818116936014811061487657505050565b60140360031b82901b16169150565b8054600160401b811015610450576148a291600182018155610ad8565b60018060a09493941b038084549260031b9316831b921b1916179055565b6148cb6040916154ad565b6148f26148dc825163ffffffff1690565b63ffffffff1663ffffffff196015541617601555565b015b601454815151111561490f57614908614740565b50506148f4565b6014548151511015614928576149236147ca565b61490f565b6000916000905b8251518210156149b55761494b61494583610a9c565b9061478b565b835b614958838551612aeb565b5151518110156149a957806149a361499461498e602061498660019661497f8a8c51612aeb565b5151612aeb565b51015161484e565b60601c90565b61499d86610a9c565b50614885565b0161494d565b5060019091019061492f565b925050506149d06149cc60155460ff9060201c1690565b1590565b6149d657565b61166f64010000000064ff00000000196015541617601555565b6149f861448f565b600a614a0382612ade565b5390565b614a0f61448f565b6012614a0382612ade565b614a2261448f565b6028614a0382612ade565b614a3561448f565b6030614a0382612ade565b614a4861448f565b6038614a0382612ade565b614a5b61448f565b607a614a0382612ade565b614a6e6144a9565b60a260005b607f80831115614a985790608060019284161760208286010153019060071c90614a73565b50607f600192166020828501015301815290565b614ab46144a9565b60f260016000826020850153019060071c90614a73565b614ad36144a9565b60fa60016000826020850153019060071c90614a73565b614af26144a9565b6101426001600060c26020850153019060071c90614a73565b614b1361448f565b6008614a0382612ade565b614b2661448f565b6010614a0382612ade565b614b3961448f565b601a614a0382612ade565b614b4c61448f565b6022614a0382612ade565b614b5f61448f565b6032614a0382612ade565b614b7261448f565b6042614a0382612ade565b614b8561448f565b6018614a0382612ade565b9060809160806001600160401b03821610614bec57614bad6144a9565b60005b607f80841115614bd457908560019285161760208285010153019160071c91614bb0565b5090929350607f600192166020828501015301815290565b909150614bf761448f565b9060f81b6001600160f81b03191660001a614a0382612ade565b6119f0614c52613ebe92614d0a614cf6613ebe614cfd614c2f610982565b94614c38614b0b565b9060409485928351998a91613ebe60209b8c85019061414b565b0398614c66601f199a8b81018352826104a6565b614ca589614c99614c89613efc614c82614c82895161ffff1690565b61ffff1690565b613ebe885195869485019061414b565b038b81018352826104a6565b614cb489614c99614c89614b1e565b614cd189614c99614c89613efc610e118489015163ffffffff1690565b614cea614cdc614b31565b85519d8e938c85019061414b565b038981018c528b6104a6565b015161517b565b915196879485019061414b565b039081018352826104a6565b90813b15614d9c57600080516020615ffe83398151915280546001600160a01b0319166001600160a01b0384169081179091557fbc7cd75a20ee27fd9adebab32041f755214dbc6bffa90cc0225b39da2e5c2d3b600080a2805115614d8157614d7e916155f2565b50565b505034614d8a57565b60405163b398979f60e01b8152600490fd5b604051634c9c8ce360e01b81526001600160a01b0383166004820152602490fd5b60405190614dca82610470565b606060408360008152600060208201520152565b90614de8826110f3565b614df560405191826104a6565b8281528092614e06601f19916110f3565b019060005b828110614e1757505050565b602090614e22614dbd565b82828501015201614e0b565b90614e376136ba565b91600081519080815b838110614efe5750614e5190614dde565b9160208601928352815b818110614e69575050505050565b614e739085614449565b90816001600160401b039182811660088114600014614eb7575050505090614eb1614ea363ffffffff9387614449565b9316889063ffffffff169052565b90614e5b565b601203614eee575050614ecd614ee89287614449565b91169061399b61397e614ee36139728585613762565b615638565b90614eb1565b614ee8935060071691508661438f565b614f0b9085949394614449565b60126001600160401b038394931614614f36575b6007614f2e929316908661438f565b929192614e40565b6007614f44614f2e9361362f565b925050614f1f565b90614f5561365d565b9160008151905b818110614f6857505050565b614f729083614449565b90816001600160401b0391828116600a8114600014614fb657505050614f9b614fae9285614449565b9116906146066138196145fa8484613762565b905b90614f5c565b60128103614fd95750505050614fcc9083614663565b919060208601525b614fb0565b601a8103614ffb5750505050614fef9083614663565b91906040860152614fb0565b6022810361503b575050506150136150359285614449565b91169061502b6150266145fa8484613762565b615703565b6060880152613762565b90614fb0565b919250906028810361506e5750505090614fd461505d63ffffffff9385614449565b9316608087019063ffffffff169052565b6032810361508f575050506150839083614663565b919060a0860152614fb0565b603881036150bb57505050906150a8614fd49284614449565b6001600160401b0390911660c087015291565b6042036150da5750506150ce9083614663565b919060e0860152614fb0565b6150359250600716908461438f565b906150f261358f565b9160008151905b81811061510557505050565b61510f9083614449565b80916001600160401b03811660088114600014615141575050509061513660ff9284614449565b921685525b906150f9565b6010036151665750509061515a63ffffffff9284614449565b9216602086015261513b565b6151759250600716908461438f565b9061513b565b6119f060206151936001600160401b03845116614b90565b60405193816151ab8693518092868087019101610995565b82016151bf82518093868085019101610995565b010380845201826104a6565b6151d3610982565b906151dc6149f0565b60408051938460209384928383016151f39161414b565b6151fc9161414b565b0393601f1994858101875261521190876104a6565b805161521c906157ce565b95865161522f906001600160401b031690565b61523890614b90565b90845191829185830161524a9161414b565b6152539161414b565b03868101825261526390826104a6565b83519687918483016152749161414b565b61527d9161414b565b03858101875261528d90876104a6565b615295614a07565b9583519687918483016152a79161414b565b6152b09161414b565b0385810187526152c090876104a6565b01516152cb906157ce565b9081516152de906001600160401b031690565b6152e790614b90565b9481519586918583016152f99161414b565b6153029161414b565b03848101865261531290866104a6565b5193849283016153219161414b565b61532a9161414b565b0390810182526119f090826104a6565b615342610982565b9061534b6149f0565b60408051938460209384928383016153629161414b565b61536b9161414b565b0393601f1994858101875261538090876104a6565b805161538b90615886565b95865161539e906001600160401b031690565b6153a790614b90565b9084519182918583016153b99161414b565b6153c29161414b565b0386810182526153d290826104a6565b83519687918483016153e39161414b565b6153ec9161414b565b0385810187526153fc90876104a6565b615404614a07565b9583519687918483016154169161414b565b61541f9161414b565b03858101875261542f90876104a6565b01516152cb90614162565b60405190602082018281106001600160401b038211176104505760405260608252565b90615467826110f3565b61547460405191826104a6565b8281528092615485601f19916110f3565b019060005b82811061549657505050565b6020906154a161543a565b8282850101520161548a565b906154b6614dbd565b91600081519080815b8381106155a457506154d09061545d565b9160408601928352815b8181106154e8575050505050565b6154f29085614449565b90816001600160401b039182811660088114600014615528575050505090615522614ea363ffffffff9387614449565b906154da565b6010810361555d57505050509061555861554763ffffffff9387614449565b9316602089019063ffffffff169052565b615522565b601a0361559457505061557361558e9287614449565b91169061399b61397e6155896139728585613762565b615cc2565b90615522565b61558e935060071691508661438f565b6155b19085949394614449565b601a6001600160401b0383949316146155dc575b60076155d4929316908661438f565b9291926154bf565b60076155ea6155d49361362f565b9250506155c5565b6000806119f093602081519101845af43d15615630573d91615613836104e7565b9261562160405194856104a6565b83523d6000602085013e615dc0565b606091615dc0565b90615641614dbd565b9160008151905b81811061565457505050565b61565e9083614449565b80916001600160401b0381166008811460001461569b575050509061569561568961ffff9385614449565b9316869061ffff169052565b90615648565b601081036156cf57505050906156ca6156b963ffffffff9385614449565b9316602087019063ffffffff169052565b615695565b601a036156ee5750506156e29083614663565b91906040860152615695565b6156fd9250600716908461438f565b90615695565b9061570c61363e565b9160008151905b81811061571f57505050565b6157299083614449565b80916001600160401b03811660088114600014615764575050509061575e61575360ff9385614449565b9316869060ff169052565b90615713565b60108103615792575050509061578d61577f60ff9385614449565b9316602087019060ff169052565b61575e565b6018036157b95750509061578d6157ab60ff9385614449565b9316604087019060ff169052565b6157c89250600716908461438f565b9061575e565b6119f0613ebe613ebe614d0a615876613efc610e116020613ebe9861586b613ebe6158456157fa610982565b615814615805614b0b565b6040519d8e938985019061414b565b039a615828601f199c8d81018352826104a6565b614c996141c0613efc61583f61583f895160ff1690565b60ff1690565b61585f615850614b1e565b6040519a8b938785019061414b565b038981018952886104a6565b015163ffffffff1690565b604051958693602085019061414b565b61588e610982565b906158976149f0565b916040805180946020938483016158ad9161414b565b6158b69161414b565b0392601f199384810186526158cb90866104a6565b80516158d6906151cb565b9485516158e9906001600160401b031690565b6158f290614b90565b9083519182918683016159049161414b565b61590d9161414b565b03858101825261591d90826104a6565b825195869185830161592e9161414b565b6159379161414b565b03848101865261594790866104a6565b61594f614a07565b9482519586918583016159619161414b565b61596a9161414b565b03848101865261597a90866104a6565b828101516159879061517b565b9482519586918583016159999161414b565b6159a29161414b565b0384810186526159b290866104a6565b6159ba614b31565b9482519586918583016159cc9161414b565b6159d59161414b565b0384810186526159e590866104a6565b818101516159f29061517b565b948251958691858301615a049161414b565b615a0d9161414b565b038481018652615a1d90866104a6565b615a25614b44565b948251958691858301615a379161414b565b615a409161414b565b038481018652615a5090866104a6565b6060810151615a5e90615e23565b948551615a71906001600160401b031690565b615a7a90614b90565b908351918291868301615a8c9161414b565b615a959161414b565b038581018252615aa590826104a6565b8251958691858301615ab69161414b565b615abf9161414b565b038481018652615acf90866104a6565b615ad7614a1a565b948251958691858301615ae99161414b565b615af29161414b565b038481018652615b0290866104a6565b6080810151615b169063ffffffff16614b90565b948251958691858301615b289161414b565b615b319161414b565b038481018652615b4190866104a6565b615b49614b57565b948251958691858301615b5b9161414b565b615b649161414b565b038481018652615b7490866104a6565b60a0810151615b829061517b565b948251958691858301615b949161414b565b615b9d9161414b565b038481018652615bad90866104a6565b615bb5614a40565b948251958691858301615bc79161414b565b615bd09161414b565b038481018652615be090866104a6565b60c08101516001600160401b0316615bf790614b90565b948251958691858301615c099161414b565b615c129161414b565b038481018652615c2290866104a6565b615c2a614b6a565b948251958691858301615c3c9161414b565b615c459161414b565b038481018652615c5590866104a6565b60e00151615c629061517b565b905193849283016153219161414b565b90615c7c826110f3565b615c8960405191826104a6565b8281528092615c9a601f19916110f3565b019060005b828110615cab57505050565b602090615cb66136ba565b82828501015201615c9f565b90615ccb61543a565b916000815181825b828110615d725750615ce490615c72565b8552815b818110615cf55750505050565b615cff9084614449565b90816001600160401b0391600a83821614600014615d5c575050615d26615d549286614449565b91169061399b615d48615d43615d3c8585613762565b848a6144eb565b615f51565b95895161398a8261362f565b905b90615ce8565b615d6c935060071691508561438f565b90615d56565b615d7f9085949394614449565b600a6001600160401b038394931614615daa575b6007615da2929316908661438f565b929192615cd3565b6007615db8615da29361362f565b925050615d93565b90615de75750805115615dd557602081519101fd5b60405163d6bda27560e01b8152600490fd5b81511580615e1a575b615df8575090565b604051639996b31560e01b81526001600160a01b039091166004820152602490fd5b50803b15615df0565b615e2b610982565b90615e34614b0b565b9160408080518095602094858301615e4b9161414b565b615e549161414b565b0393601f19948581018752615e6990876104a6565b8051615e779060ff16614b90565b958251968791868301615e899161414b565b615e929161414b565b038581018752615ea290876104a6565b615eaa614b1e565b958251968791868301615ebc9161414b565b615ec59161414b565b038581018752615ed590876104a6565b83810151615ee59060ff16614b90565b958251968791868301615ef79161414b565b615f009161414b565b038581018752615f1090876104a6565b615f18614b7d565b958251968791868301615f2a9161414b565b615f339161414b565b038581018752615f4390876104a6565b0151615c629060ff16614b90565b90615f5a6136ba565b9160008151905b818110615f6d57505050565b615f779083614449565b80916001600160401b03811660088114600014615fa95750505090615f9e60ff9284614449565b921685525b90615f61565b601203615fc8575050615fbc9083614663565b91906020860152615fa3565b615fd79250600716908461438f565b90615fa356fef3177357ab46d8af007ab3fdb9af81da189e1068fefdc0073dca88a2cab40a00360894a13ba1a3210667c828492db98dca3e2076cc3735a920a3ca505d382bbcf0c57e16840df040f15088dc2f81fe391c3923bec73e23a9662efc9c229c6a00a2646970667358221220fa761d9033cbd6de7c67b7b1ddd6fac8bf05d00e9fd58314fc75df4118a7f4dc64736f6c63430008190033",
  "linkReferences": {
    "contracts/common/sysio_merkle.sol": {
      "sysio_merkle": [
        {
          "length": 20,
          "start": 11840
        }
      ]
    },
    "contracts/outpost/OPPCommon.sol": {
      "OPPCommon": [
        {
          "length": 20,
          "start": 11141
        }
      ]
    }
  },
  "deployedLinkReferences": {
    "contracts/common/sysio_merkle.sol": {
      "sysio_merkle": [
        {
          "length": 20,
          "start": 11762
        }
      ]
    },
    "contracts/outpost/OPPCommon.sol": {
      "OPPCommon": [
        {
          "length": 20,
          "start": 11063
        }
      ]
    }
  }
}