{
  "_format": "hh-sol-artifact-1",
  "contractName": "OPP",
  "sourceName": "contracts/outpost/OPP.sol",
  "abi": [
    {
      "inputs": [
        {
          "internalType": "address",
          "name": "authority",
          "type": "address"
        }
      ],
      "name": "AccessManagedInvalidAuthority",
      "type": "error"
    },
    {
      "inputs": [
        {
          "internalType": "address",
          "name": "caller",
          "type": "address"
        },
        {
          "internalType": "uint32",
          "name": "delay",
          "type": "uint32"
        }
      ],
      "name": "AccessManagedRequiredDelay",
      "type": "error"
    },
    {
      "inputs": [
        {
          "internalType": "address",
          "name": "caller",
          "type": "address"
        }
      ],
      "name": "AccessManagedUnauthorized",
      "type": "error"
    },
    {
      "inputs": [
        {
          "internalType": "address",
          "name": "target",
          "type": "address"
        }
      ],
      "name": "AddressEmptyCode",
      "type": "error"
    },
    {
      "inputs": [
        {
          "internalType": "address",
          "name": "implementation",
          "type": "address"
        }
      ],
      "name": "ERC1967InvalidImplementation",
      "type": "error"
    },
    {
      "inputs": [],
      "name": "ERC1967NonPayable",
      "type": "error"
    },
    {
      "inputs": [],
      "name": "FailedCall",
      "type": "error"
    },
    {
      "inputs": [],
      "name": "InvalidInitialization",
      "type": "error"
    },
    {
      "inputs": [],
      "name": "NotInitializing",
      "type": "error"
    },
    {
      "inputs": [
        {
          "internalType": "bytes32",
          "name": "expected",
          "type": "bytes32"
        },
        {
          "internalType": "bytes32",
          "name": "actual",
          "type": "bytes32"
        }
      ],
      "name": "OPP_EpochHashMismatch",
      "type": "error"
    },
    {
      "inputs": [
        {
          "internalType": "uint256",
          "name": "required",
          "type": "uint256"
        },
        {
          "internalType": "uint256",
          "name": "provided",
          "type": "uint256"
        }
      ],
      "name": "OPP_InsufficientSignatureWeight",
      "type": "error"
    },
    {
      "inputs": [
        {
          "internalType": "address",
          "name": "caller",
          "type": "address"
        },
        {
          "internalType": "address",
          "name": "expected",
          "type": "address"
        }
      ],
      "name": "OPP_InvalidOPPAddress",
      "type": "error"
    },
    {
      "inputs": [
        {
          "internalType": "bytes",
          "name": "expected",
          "type": "bytes"
        },
        {
          "internalType": "bytes",
          "name": "actual",
          "type": "bytes"
        }
      ],
      "name": "OPP_MessageIDMismatch",
      "type": "error"
    },
    {
      "inputs": [],
      "name": "OPP_NoAttestationsSent",
      "type": "error"
    },
    {
      "inputs": [],
      "name": "OPP_NoPendingAttestations",
      "type": "error"
    },
    {
      "inputs": [
        {
          "internalType": "uint32",
          "name": "expected",
          "type": "uint32"
        },
        {
          "internalType": "uint32",
          "name": "actual",
          "type": "uint32"
        }
      ],
      "name": "OPP_NonSequentialEpoch",
      "type": "error"
    },
    {
      "inputs": [],
      "name": "OPP_NotSending",
      "type": "error"
    },
    {
      "inputs": [],
      "name": "OPP_OPPAddressNotSet",
      "type": "error"
    },
    {
      "inputs": [
        {
          "internalType": "bytes32",
          "name": "expected",
          "type": "bytes32"
        },
        {
          "internalType": "bytes32",
          "name": "actual",
          "type": "bytes32"
        }
      ],
      "name": "OPP_PayloadChecksumMismatch",
      "type": "error"
    },
    {
      "inputs": [
        {
          "internalType": "uint32",
          "name": "epochIndex",
          "type": "uint32"
        },
        {
          "internalType": "uint256",
          "name": "messageCount",
          "type": "uint256"
        }
      ],
      "name": "OPP_PreviousEpochPendingMessages",
      "type": "error"
    },
    {
      "inputs": [
        {
          "internalType": "uint32",
          "name": "epochIndex",
          "type": "uint32"
        }
      ],
      "name": "OPP_PreviousEpochSent",
      "type": "error"
    },
    {
      "inputs": [
        {
          "internalType": "uint32",
          "name": "epochIndex",
          "type": "uint32"
        }
      ],
      "name": "OPP_PreviousEpochUnsent",
      "type": "error"
    },
    {
      "inputs": [
        {
          "internalType": "uint256",
          "name": "stack",
          "type": "uint256"
        }
      ],
      "name": "OPP_SendStackError",
      "type": "error"
    },
    {
      "inputs": [
        {
          "internalType": "uint256",
          "name": "expectedMaxMessages",
          "type": "uint256"
        },
        {
          "internalType": "uint256",
          "name": "actualMessages",
          "type": "uint256"
        }
      ],
      "name": "OPP_TooManyMessages",
      "type": "error"
    },
    {
      "inputs": [
        {
          "internalType": "address",
          "name": "sender",
          "type": "address"
        },
        {
          "internalType": "AttestationType",
          "name": "attestationType",
          "type": "uint16"
        }
      ],
      "name": "OPP_UnauthorizedAttestationType",
      "type": "error"
    },
    {
      "inputs": [
        {
          "internalType": "AttestationType",
          "name": "attestationType",
          "type": "uint16"
        }
      ],
      "name": "OPP_UnhandledAttestationType",
      "type": "error"
    },
    {
      "inputs": [],
      "name": "OPP_ZeroTag",
      "type": "error"
    },
    {
      "inputs": [],
      "name": "UUPSUnauthorizedCallContext",
      "type": "error"
    },
    {
      "inputs": [
        {
          "internalType": "bytes32",
          "name": "slot",
          "type": "bytes32"
        }
      ],
      "name": "UUPSUnsupportedProxiableUUID",
      "type": "error"
    },
    {
      "anonymous": false,
      "inputs": [
        {
          "indexed": false,
          "internalType": "address",
          "name": "authority",
          "type": "address"
        }
      ],
      "name": "AuthorityUpdated",
      "type": "event"
    },
    {
      "anonymous": false,
      "inputs": [
        {
          "indexed": false,
          "internalType": "uint64",
          "name": "version",
          "type": "uint64"
        }
      ],
      "name": "Initialized",
      "type": "event"
    },
    {
      "anonymous": false,
      "inputs": [
        {
          "indexed": false,
          "internalType": "bytes",
          "name": "data",
          "type": "bytes"
        }
      ],
      "name": "OPPEnvelope",
      "type": "event"
    },
    {
      "anonymous": false,
      "inputs": [
        {
          "indexed": false,
          "internalType": "bytes",
          "name": "data",
          "type": "bytes"
        }
      ],
      "name": "OPPEpoch",
      "type": "event"
    },
    {
      "anonymous": false,
      "inputs": [
        {
          "indexed": true,
          "internalType": "address",
          "name": "implementation",
          "type": "address"
        }
      ],
      "name": "Upgraded",
      "type": "event"
    },
    {
      "inputs": [],
      "name": "MESSAGE_EPOCH_SECS",
      "outputs": [
        {
          "internalType": "uint256",
          "name": "",
          "type": "uint256"
        }
      ],
      "stateMutability": "view",
      "type": "function"
    },
    {
      "inputs": [],
      "name": "UPGRADE_INTERFACE_VERSION",
      "outputs": [
        {
          "internalType": "string",
          "name": "",
          "type": "string"
        }
      ],
      "stateMutability": "view",
      "type": "function"
    },
    {
      "inputs": [
        {
          "internalType": "AttestationType",
          "name": "attestationType",
          "type": "uint16"
        },
        {
          "internalType": "bytes",
          "name": "data",
          "type": "bytes"
        }
      ],
      "name": "addAttestation",
      "outputs": [],
      "stateMutability": "nonpayable",
      "type": "function"
    },
    {
      "inputs": [
        {
          "internalType": "uint256",
          "name": "",
          "type": "uint256"
        }
      ],
      "name": "allAuthorizedSenders",
      "outputs": [
        {
          "internalType": "address",
          "name": "",
          "type": "address"
        }
      ],
      "stateMutability": "view",
      "type": "function"
    },
    {
      "inputs": [],
      "name": "authority",
      "outputs": [
        {
          "internalType": "address",
          "name": "",
          "type": "address"
        }
      ],
      "stateMutability": "view",
      "type": "function"
    },
    {
      "inputs": [
        {
          "internalType": "bytes32",
          "name": "",
          "type": "bytes32"
        }
      ],
      "name": "authorizedSenders",
      "outputs": [
        {
          "internalType": "bool",
          "name": "",
          "type": "bool"
        }
      ],
      "stateMutability": "view",
      "type": "function"
    },
    {
      "inputs": [],
      "name": "emitOutboundEnvelope",
      "outputs": [],
      "stateMutability": "nonpayable",
      "type": "function"
    },
    {
      "inputs": [
        {
          "internalType": "uint256",
          "name": "tag",
          "type": "uint256"
        }
      ],
      "name": "enterSendMode",
      "outputs": [],
      "stateMutability": "nonpayable",
      "type": "function"
    },
    {
      "inputs": [],
      "name": "epochIndex",
      "outputs": [
        {
          "internalType": "uint32",
          "name": "",
          "type": "uint32"
        }
      ],
      "stateMutability": "view",
      "type": "function"
    },
    {
      "inputs": [
        {
          "internalType": "uint256",
          "name": "tag",
          "type": "uint256"
        }
      ],
      "name": "exitSendMode",
      "outputs": [],
      "stateMutability": "nonpayable",
      "type": "function"
    },
    {
      "inputs": [],
      "name": "finalizeEpoch",
      "outputs": [],
      "stateMutability": "nonpayable",
      "type": "function"
    },
    {
      "inputs": [],
      "name": "inSendMode",
      "outputs": [
        {
          "internalType": "bool",
          "name": "",
          "type": "bool"
        }
      ],
      "stateMutability": "view",
      "type": "function"
    },
    {
      "inputs": [
        {
          "internalType": "address",
          "name": "_authority",
          "type": "address"
        },
        {
          "internalType": "uint256",
          "name": "messageEpochSecs",
          "type": "uint256"
        }
      ],
      "name": "initialize",
      "outputs": [],
      "stateMutability": "nonpayable",
      "type": "function"
    },
    {
      "inputs": [],
      "name": "isConsumingScheduledOp",
      "outputs": [
        {
          "internalType": "bytes4",
          "name": "",
          "type": "bytes4"
        }
      ],
      "stateMutability": "view",
      "type": "function"
    },
    {
      "inputs": [],
      "name": "lastMessageID",
      "outputs": [
        {
          "internalType": "bytes32",
          "name": "",
          "type": "bytes32"
        }
      ],
      "stateMutability": "view",
      "type": "function"
    },
    {
      "inputs": [],
      "name": "lastMessageTimestamp",
      "outputs": [
        {
          "internalType": "uint64",
          "name": "",
          "type": "uint64"
        }
      ],
      "stateMutability": "view",
      "type": "function"
    },
    {
      "inputs": [],
      "name": "pendingAttestationCount",
      "outputs": [
        {
          "internalType": "uint256",
          "name": "",
          "type": "uint256"
        }
      ],
      "stateMutability": "view",
      "type": "function"
    },
    {
      "inputs": [],
      "name": "prevEpochSent",
      "outputs": [
        {
          "internalType": "bool",
          "name": "",
          "type": "bool"
        }
      ],
      "stateMutability": "view",
      "type": "function"
    },
    {
      "inputs": [],
      "name": "proxiableUUID",
      "outputs": [
        {
          "internalType": "bytes32",
          "name": "",
          "type": "bytes32"
        }
      ],
      "stateMutability": "view",
      "type": "function"
    },
    {
      "inputs": [],
      "name": "queuedMessageCount",
      "outputs": [
        {
          "internalType": "uint256",
          "name": "",
          "type": "uint256"
        }
      ],
      "stateMutability": "view",
      "type": "function"
    },
    {
      "inputs": [],
      "name": "sendModeTag",
      "outputs": [
        {
          "internalType": "uint256",
          "name": "",
          "type": "uint256"
        }
      ],
      "stateMutability": "view",
      "type": "function"
    },
    {
      "inputs": [
        {
          "components": [
            {
              "components": [
                {
                  "components": [
                    {
                      "internalType": "ChainKind",
                      "name": "kind",
                      "type": "uint8"
                    },
                    {
                      "internalType": "uint32",
                      "name": "id",
                      "type": "uint32"
                    }
                  ],
                  "internalType": "struct ChainId",
                  "name": "start",
                  "type": "tuple"
                },
                {
                  "components": [
                    {
                      "internalType": "ChainKind",
                      "name": "kind",
                      "type": "uint8"
                    },
                    {
                      "internalType": "uint32",
                      "name": "id",
                      "type": "uint32"
                    }
                  ],
                  "internalType": "struct ChainId",
                  "name": "end",
                  "type": "tuple"
                }
              ],
              "internalType": "struct Endpoints",
              "name": "endpoints",
              "type": "tuple"
            },
            {
              "internalType": "bytes",
              "name": "messageId",
              "type": "bytes"
            },
            {
              "internalType": "bytes",
              "name": "previousMessageId",
              "type": "bytes"
            },
            {
              "components": [
                {
                  "internalType": "Endianness",
                  "name": "endianness",
                  "type": "uint8"
                },
                {
                  "internalType": "HashAlgorithm",
                  "name": "hashAlgorithm",
                  "type": "uint8"
                },
                {
                  "internalType": "LengthEncoding",
                  "name": "lengthEncoding",
                  "type": "uint8"
                }
              ],
              "internalType": "struct EncodingFlags",
              "name": "encodingFlags",
              "type": "tuple"
            },
            {
              "internalType": "uint32",
              "name": "payloadSize",
              "type": "uint32"
            },
            {
              "internalType": "bytes",
              "name": "payloadChecksum",
              "type": "bytes"
            },
            {
              "internalType": "uint64",
              "name": "timestamp",
              "type": "uint64"
            },
            {
              "internalType": "bytes",
              "name": "headerChecksum",
              "type": "bytes"
            }
          ],
          "internalType": "struct MessageHeader",
          "name": "header",
          "type": "tuple"
        },
        {
          "components": [
            {
              "internalType": "uint32",
              "name": "version",
              "type": "uint32"
            },
            {
              "components": [
                {
                  "internalType": "AttestationType",
                  "name": "type_",
                  "type": "uint16"
                },
                {
                  "internalType": "uint32",
                  "name": "dataSize",
                  "type": "uint32"
                },
                {
                  "internalType": "bytes",
                  "name": "data",
                  "type": "bytes"
                }
              ],
              "internalType": "struct AttestationEntry[]",
              "name": "attestations",
              "type": "tuple[]"
            }
          ],
          "internalType": "struct MessagePayload",
          "name": "payload",
          "type": "tuple"
        }
      ],
      "name": "serializeMessage",
      "outputs": [
        {
          "components": [
            {
              "components": [
                {
                  "components": [
                    {
                      "internalType": "ChainKind",
                      "name": "kind",
                      "type": "uint8"
                    },
                    {
                      "internalType": "uint32",
                      "name": "id",
                      "type": "uint32"
                    }
                  ],
                  "internalType": "struct ChainId",
                  "name": "start",
                  "type": "tuple"
                },
                {
                  "components": [
                    {
                      "internalType": "ChainKind",
                      "name": "kind",
                      "type": "uint8"
                    },
                    {
                      "internalType": "uint32",
                      "name": "id",
                      "type": "uint32"
                    }
                  ],
                  "internalType": "struct ChainId",
                  "name": "end",
                  "type": "tuple"
                }
              ],
              "internalType": "struct Endpoints",
              "name": "endpoints",
              "type": "tuple"
            },
            {
              "internalType": "bytes",
              "name": "messageId",
              "type": "bytes"
            },
            {
              "internalType": "bytes",
              "name": "previousMessageId",
              "type": "bytes"
            },
            {
              "components": [
                {
                  "internalType": "Endianness",
                  "name": "endianness",
                  "type": "uint8"
                },
                {
                  "internalType": "HashAlgorithm",
                  "name": "hashAlgorithm",
                  "type": "uint8"
                },
                {
                  "internalType": "LengthEncoding",
                  "name": "lengthEncoding",
                  "type": "uint8"
                }
              ],
              "internalType": "struct EncodingFlags",
              "name": "encodingFlags",
              "type": "tuple"
            },
            {
              "internalType": "uint32",
              "name": "payloadSize",
              "type": "uint32"
            },
            {
              "internalType": "bytes",
              "name": "payloadChecksum",
              "type": "bytes"
            },
            {
              "internalType": "uint64",
              "name": "timestamp",
              "type": "uint64"
            },
            {
              "internalType": "bytes",
              "name": "headerChecksum",
              "type": "bytes"
            }
          ],
          "internalType": "struct MessageHeader",
          "name": "",
          "type": "tuple"
        }
      ],
      "stateMutability": "pure",
      "type": "function"
    },
    {
      "inputs": [
        {
          "internalType": "address",
          "name": "newAuthority",
          "type": "address"
        }
      ],
      "name": "setAuthority",
      "outputs": [],
      "stateMutability": "nonpayable",
      "type": "function"
    },
    {
      "inputs": [
        {
          "internalType": "uint256",
          "name": "secs",
          "type": "uint256"
        }
      ],
      "name": "setMessageEpochSecs",
      "outputs": [],
      "stateMutability": "nonpayable",
      "type": "function"
    },
    {
      "inputs": [
        {
          "internalType": "uint256",
          "name": "adjustment",
          "type": "uint256"
        }
      ],
      "name": "testAdvanceEpochClock",
      "outputs": [],
      "stateMutability": "nonpayable",
      "type": "function"
    },
    {
      "inputs": [
        {
          "internalType": "address",
          "name": "newImplementation",
          "type": "address"
        },
        {
          "internalType": "bytes",
          "name": "data",
          "type": "bytes"
        }
      ],
      "name": "upgradeToAndCall",
      "outputs": [],
      "stateMutability": "payable",
      "type": "function"
    }
  ],
  "bytecode": "0x60a0806040523460295730608052614657908161002f8239608051818181610a2101526135680152f35b600080fdfe6080604052600436101561001257600080fd5b60003560e01c806306c106f9146101b75780631e1afc48146101b257806327e935a1146101ad57806347453a2a146101a85780634f1ef286146101a357806352d1902d1461019e578063621fbd59146101995780637a9e5e4b1461019457806382ae9ef71461018f5780638fb360371461018a5780639039e4951461018557806395fabcf0146101805780639b0715001461017b578063a9e50c1014610176578063ad3cb1cc14610171578063bf7e214f1461016c578063c94c93e714610167578063cd6dc68714610162578063da55d96a1461015d578063e006490014610158578063e0c14aa814610153578063e11418b71461014e578063e36f9a0714610149578063e44efb5a14610144578063f5786b4b1461013f5763f8c7dd2c1461013a57600080fd5b611193565b610feb565b610fcb565b610fad565b610f64565b610e36565b610e18565b610df5565b610cc4565b610c93565b610c5d565b610c17565b610bdd565b610bbf565b610ba1565b610b7e565b610b2b565b610b12565b610a97565b610a79565b610a0e565b610901565b610890565b6107e1565b6106ac565b6101cc565b60009103126101c757565b600080fd5b346101c75760003660031901126101c757602063ffffffff60085416604051908152f35b634e487b7160e01b600052604160045260246000fd5b604081019081106001600160401b0382111761022157604052565b6101f0565b606081019081106001600160401b0382111761022157604052565b6001600160401b03811161022157604052565b602081019081106001600160401b0382111761022157604052565b90601f801991011681019081106001600160401b0382111761022157604052565b6040519061010082018281106001600160401b0382111761022157604052565b604051906102bd82610226565b565b60ff8116036101c757565b63ffffffff8116036101c757565b35906102bd826102ca565b91908260409103126101c7576040516102fb81610206565b6020808294803561030b816102bf565b8452013591610319836102ca565b0152565b91906080838203126101c75760206103516040519261033b84610206565b6040849661034983826102e3565b8652016102e3565b910152565b6001600160401b03811161022157601f01601f191660200190565b81601f820112156101c75780359061038882610356565b92610396604051948561026f565b828452602083830101116101c757816000926020809301838601378301015290565b91908260609103126101c7576040516103d081610226565b604080829480356103e0816102bf565b845260208101356103f0816102bf565b6020850152013591610319836102bf565b35906001600160401b03821682036101c757565b6001600160401b0381116102215760051b60200190565b6004359061ffff821682036101c757565b359061ffff821682036101c757565b91909160409081818503126101c757815161046681610206565b80948235610473816102ca565b8252602092838101356001600160401b03918282116101c757019180601f840112156101c7578235906104a582610415565b966104b28151988961026f565b828852868089019360051b860101948286116101c757878101935b8685106104df57505050505050500152565b84358681116101c75782019060609081601f1984880301126101c75784519161050783610226565b6105128c850161043d565b835285840135610521816102ca565b8c840152830135918883116101c757610541878d80969581960101610371565b868201528152019401936104cd565b90604060206102bd9361057784825163ffffffff6020809260ff8151168552015116910152565b015191019063ffffffff6020809260ff8151168552015116910152565b60005b8381106105a75750506000910152565b8181015183820152602001610597565b906020916105d081518092818552858086019101610594565b601f01601f1916010190565b906106a991602081526105f3602082018351610550565b6020820151906106116101a0928360a08401526101c08301906105b7565b9160e0610685610633604087015195601f1996878783030160c08801526105b7565b61065f60608801518487019060ff60408092828151168552826020820151166020860152015116910152565b608087015163ffffffff1661014086015260a087015186868303016101608701526105b7565b60c08601516001600160401b031661018085015294015192828503019101526105b7565b90565b346101c7576003196040368201126101c757600480356001600160401b03928382116101c7576101a09082360301126101c7576106e7610290565b906106f43682850161031d565b825260848101358481116101c75761071190843691840101610371565b602083015260a48101358481116101c75761073190843691840101610371565b60408301526107433660c483016103b8565b606083015261075561012482016102d8565b60808301526101448101358481116101c75761077690843691840101610371565b60a08301526107886101648201610401565b60c0830152610184810135908482116101c757836107a99236920101610371565b60e08201526024359283116101c7576107cb6107d1926107dd9436910161044c565b906113a4565b604051918291826105dc565b0390f35b346101c75760203660031901126101c7576004356107ff36336120d9565b8015610819576004541561080f57005b6004556000600355005b604051636ad43cc360e11b8152600490fd5b634e487b7160e01b600052603260045260246000fd5b6010548110156108665760106000526000805160206145c28339815191520190600090565b61082b565b600f5481101561086657600f6000526000805160206146028339815191520190600090565b346101c75760203660031901126101c7576004356006548110156101c75760066000527ff652222313e28459528d920b65115c16c04f3efc82aaedc97be59f3f377c0d3f01546040516001600160a01b039091168152602090f35b600435906001600160a01b03821682036101c757565b60403660031901126101c7576109156108eb565b6024356001600160401b0381116101c757610934903690600401610371565b9061093d61355e565b61094736336120d9565b61094f61355e565b6040516352d1902d60e01b8152916020836004816001600160a01b0386165afa600093816109dd575b506109a257604051634c9c8ce360e01b81526001600160a01b0383166004820152602490fd5b0390fd5b906000805160206145a283398151915283036109c4576109c29250613e2c565b005b604051632a87526960e21b815260048101849052602490fd5b610a0091945060203d602011610a07575b6109f8818361026f565b81019061125a565b9238610978565b503d6109ee565b346101c75760003660031901126101c7577f00000000000000000000000000000000000000000000000000000000000000006001600160a01b03163003610a675760206040516000805160206145a28339815191528152f35b60405163703e46dd60e11b8152600490fd5b346101c75760003660031901126101c7576020600054604051908152f35b346101c75760203660031901126101c757610ab06108eb565b600080516020614582833981519152546001600160a01b03919082163303610afb57803b15610ae2576109c2906121f8565b6040516361798f2f60e11b815291166004820152602490fd5b60405162d1953b60e31b8152336004820152602490fd5b346101c75760003660031901126101c7576109c2611630565b346101c75760003660031901126101c7576000805160206145828339815191525460a01c60ff1615610b75576020638fb3603760e01b5b6040516001600160e01b03199091168152f35b60206000610b62565b346101c75760203660031901126101c757610b9936336120d9565b600435600755005b346101c75760003660031901126101c7576020600354604051908152f35b346101c75760003660031901126101c7576020600754604051908152f35b346101c75760003660031901126101c75760206001600160401b0360015416604051908152f35b60405190610c1182610254565b60008252565b346101c75760003660031901126101c7576107dd604051610c3781610206565b60058152640352e302e360dc1b60208201526040519182916020835260208301906105b7565b346101c75760003660031901126101c757600080516020614582833981519152546040516001600160a01b039091168152602090f35b346101c75760203660031901126101c7576004356000526005602052602060ff604060002054166040519015158152f35b346101c75760403660031901126101c757610cdd6108eb565b6000805160206145e283398151915254906001600160401b0360ff8360401c1615921680159081610ded575b6001149081610de3575b159081610dda575b50610dc8576000805160206145e2833981519152805467ffffffffffffffff19166001179055610d549082610da3575b602435906129f8565b610d5a57005b6000805160206145e2833981519152805460ff60401b19169055604051600181527fc7f505b2f371ae2175ee4913f4499e1f2633a7b5936321eed1cdaeb6115181d290602090a1005b6000805160206145e2833981519152805460ff60401b1916600160401b179055610d4b565b60405163f92ee8a960e01b8152600490fd5b90501538610d1b565b303b159150610d13565b839150610d09565b346101c75760003660031901126101c757602060ff601754166040519015158152f35b346101c75760003660031901126101c7576020601954604051908152f35b346101c7576040806003193601126101c757610e5061042c565b6024356001600160401b0381116101c757610e6f903690600401610371565b9160045415610f5457610e8236336120d9565b60008051602061458283398151915254610eb290610ea6906001600160a01b031681565b6001600160a01b031690565b81516368fc2b7760e11b815261ffff841662010000176004820152336024820152908290829060449082905afa908115610f4f57600091610f21575b5015610efe576109c28383612d5a565b51639a28d60760e01b815233600482015261ffff91909116602482015260449150fd5b610f419150823d8411610f48575b610f39818361026f565b81019061178f565b5038610eee565b503d610f2f565b611315565b5163738c481160e01b8152600490fd5b346101c75760203660031901126101c757600435610f8236336120d9565b60115480610f9e57504203428111610f9957601155005b6115f3565b908103908111610f9957601155005b346101c75760003660031901126101c7576020600454604051908152f35b346101c75760003660031901126101c75760206004541515604051908152f35b346101c7576020806003193601126101c75760049081358254156111825761101336336120d9565b80156111715782541461102257005b6000825560035491821561116257506110396111e7565b91611045600054611ee4565b604084810191909152426001600160401b031660c08501529061106661191f565b600181529161107482612df3565b84840190815260005b8381106110e95750505050611095816110cc946113a4565b916110b96110a582850151611ed0565b60c08501516001600160401b031690613d21565b6110c1611939565b928352820152613041565b6110df6110da60195461240d565b601955565b6109c26000600355565b8061115b816111026110fc600195612b2d565b50612e5b565b8961110f825161ffff1690565b910151611144611123825163ffffffff1690565b61113861112e6102b0565b61ffff9095168552565b63ffffffff16838d0152565b8782015285519061115583836119b8565b526119b8565b500161107d565b60405163783bc0f160e11b8152fd5b604051636ad43cc360e11b81528390fd5b60405163738c481160e01b81528390fd5b346101c75760003660031901126101c7576109c2611dbb565b604051906111b982610206565b60006020838281520152565b604051906111d282610206565b816111db6111ac565b815260206103516111ac565b6040519061010082018281106001600160401b0382111761022157604052606060e0836112126111c5565b815282602082015282604082015260405161122c81610226565b60008152600060208201526000604082015283820152600060808201528260a0820152600060c08201520152565b908160209103126101c7575190565b90602080835260609060608401908063ffffffff94858151168288015201519460408080830152865180945260808201908360808660051b8501019801956000935b8685106112be5750505050505050505090565b909192939495969799988680611300600193868f89908f607f198a8603018d52519061ffff8251168552868201511686850152015191818a82015201906105b7565b9b9c9a019897969190910194019291906112ab565b6040513d6000823e3d90fd5b6020818303126101c7578051906001600160401b0382116101c7570181601f820112156101c757805161135381610356565b92611361604051948561026f565b818452602082840101116101c7576106a99160208085019101610594565b90916113966106a9936040845260408401906105b7565b9160208184039101526105b7565b906113ad6111e7565b5073__$b91d2ad766fd07dc99f56c1a0b020615bb$__60405163765809ab60e11b81526020928382806113e38460048301611269565b0381865af4918215610f4f5760009261156f575b5060a0850180518051611532575061142a916114209161141961143795611ee4565b9052611f11565b5163ffffffff1690565b63ffffffff166080850152565b60405162409a0960e81b81526000818061145487600483016105dc565b0381855af4908115610f4f57600091611511575b5083830180518051806114da5750505281604051809263b93612a760e01b8252818061149788600483016105dc565b03915af4908115610f4f576114b5926000926114bd575b5050611ee4565b60e082015290565b6114d39250803d10610a07576109f8818361026f565b38806114ae565b9150938092935084012090825190830120036114f557505090565b61099e604051928392630ca2e06d60e11b84526004840161137f565b61152c913d8091833e611524818361026f565b810190611321565b38611468565b905061153e9150611ed0565b9080820361154d575050611437565b604051631d97afef60e31b815260048101919091526024810191909152604490fd5b611587919250843d8611610a07576109f8818361026f565b90386113f7565b6040519061014082018281106001600160401b03821117610221576040526060808352610120836115bd6111c5565b602082015260006040820152600083820152600060808201528260a08201528260c08201528260e0820152826101008201520152565b634e487b7160e01b600052601160045260246000fd5b63ffffffff9081166000190191908211610f9957565b9060206106a99281815201906105b7565b60175460ff16611782575b60175460ff16611740577f17c789cd9b6ebb5030c7b906ed9f08f64563805e0aeab6d5f53dda9305a8348b61171461170861167461241c565b6116cb61167f61158e565b916116a761169a61169560085463ffffffff1690565b611609565b63ffffffff166060850152565b426001600160401b031660408401526116c1601354611ee4565b60c0840152611ee4565b60a08201526116db601554611ee4565b60e08201526116eb601654611ee4565b610100820152611703600160ff196017541617601755565b61252d565b6040519182918261161f565b0390a161171f612251565b61173261172e60175460ff1690565b1590565b61173857565b6102bd611630565b61099e63ffffffff60001961175a60085463ffffffff1690565b0116604051918291630642fe1b60e11b83526004830191909163ffffffff6020820193169052565b61178a612251565b61163b565b91908260409103126101c757815180151581036101c7576020909201516106a9816102ca565b600019810191908211610f9957565b600119810191908211610f9957565b601854156108665760186000527fb13d2d76d1f4b7be834882e410b3e3a8afaf69f83600ae24db354391d2378d2e90600090565b60185481101561086657600b906018600052027fb13d2d76d1f4b7be834882e410b3e3a8afaf69f83600ae24db354391d2378d2e0190600090565b90600182811c92168015611872575b602083101461185c57565b634e487b7160e01b600052602260045260246000fd5b91607f1691611851565b9060405191826000825461188f81611842565b908184526020946001916001811690816000146118fd57506001146118be575b5050506102bd9250038361026f565b600090815285812095935091905b8183106118e55750506102bd93508201013880806118af565b855488840185015294850194879450918301916118cc565b925050506102bd94925060ff191682840152151560051b8201013880806118af565b6040519061192c82610206565b6060602083600081520152565b6040519061194682610206565b8161194f6111e7565b8152602061035161191f565b9061196582610415565b611972604051918261026f565b8281528092611983601f1991610415565b019060005b82811061199457505050565b60209061199f611939565b82828501015201611988565b8051156108665760200190565b80518210156108665760209160051b010190565b906040516119d981610206565b915460ff8116835260081c63ffffffff166020830152565b906040516119fe81610206565b602061035160018395611a10816119cc565b8552016119cc565b90604051611a2581610226565b604060ff8294548181168452818160081c16602085015260101c16910152565b9060408051611a5381610206565b809363ffffffff8082541683526001809201805491611a7183610415565b95611a7f604051978861026f565b83875260209160208801936000526020600020916000945b868610611aac57505050505050505060200152565b60028589928451611abc81610226565b86885461ffff8116835260101c1683820152611ad985890161187c565b86820152815201940195019492611a97565b90604051611af881610206565b602061035160098395611b09610290565b611b12826119f1565b8152611b206002830161187c565b85820152611b306003830161187c565b6040820152611b4160048301611a18565b6060820152611b67611b5a600584015463ffffffff1690565b63ffffffff166080830152565b611b736006830161187c565b60a0820152611b9f611b8f60078401546001600160401b031690565b6001600160401b031660c0830152565b611bab6008830161187c565b60e0820152855201611a45565b634e487b7160e01b600052600060045260246000fd5b818110611bd9575050565b60008155600101611bce565b611bef8154611842565b9081611bf9575050565b81601f60009311600114611c0b575055565b908083918252611c2a601f60208420940160051c840160018501611bce565b5555565b600160401b821161022157805490828155818310611c4b57505050565b6001916001600160ff1b038082168203610f995784168403610f995760009160005260206000209060011b81019360011b015b838110611c8b5750505050565b808260029255611c9c848201611be5565b01611c7e565b600090600081556001809101918254926000815583611cc2575b50505050565b6001600160ff1b0384168403610f995760005260206000209260011b8301925b83811015611cbc57808260029255611cfb848201611be5565b01611ce2565b6018546000908160185580611d14575050565b600b9181600b0291600b830403610f9957601881527fb13d2d76d1f4b7be834882e410b3e3a8afaf69f83600ae24db354391d2378d2e918201915b828110611d5c5750505050565b8082859255826001820155611d7360028201611be5565b611d7f60038201611be5565b826004820155826005820155611d9760068201611be5565b826007820155611da960088201611be5565b611db560098201611ca2565b01611d4f565b6019548015611ecd57611dcc61158e565b90611dec611ddf60085463ffffffff1690565b63ffffffff166060840152565b426001600160401b03166040830152611e06601354611ee4565b60c0830152611e1f6002611e186117d3565b500161187c565b60e0830152611e3a6002611e18611e35846117b5565b611807565b610100830152611e498161195b565b610120830190815260005b828110611ea057505050611e8b6117087fe93b186dfb145614c1bb2c64e844f7211236c8c919656e5e745d6cdb6260d8879261252d565b0390a1611e96611d01565b6102bd6000601955565b80611ec681611eb0600194611807565b50611ebc865191611aeb565b61115583836119b8565b5001611e54565b50565b805115611ede576020015190565b50600090565b604051906020820152602081526106a981610206565b90611f0d60209282815194859201610594565b0190565b611f4a91611f1d610c04565b90611f266131a9565b611f44611f9e604092604051978891611f4460209889850190611efa565b90611efa565b0396611f5e601f199889810183528261026f565b611f92611f83611f7e611f758a5163ffffffff1690565b63ffffffff1690565b613349565b60405194859389850190611efa565b0387810183528261026f565b916000925b84860180515185101561205b57611f44612051611f4461204589956120378d612005611fff8d60019a611ff98f611fed8f91611f44611fe06131c0565b91519b8c94850190611efa565b0386810189528861026f565b516119b8565b516133ca565b9261202b61201d611f7e86516001600160401b031690565b8d519788938d850190611efa565b0390810185528461026f565b885194859388850190611efa565b038a810183528261026f565b9401939050611fa3565b5095509350505050565b6004116101c757600090600490565b6001600160e01b0319903581811693926004811061209157505050565b60040360031b82901b16169150565b6001600160a01b0390911681526040602082018190528101829052606091806000848401376000828201840152601f01601f1916010190565b6000805160206145828339815191528054612112906001600160a01b031661210961210386612065565b90612074565b908430916134cf565b901561211e5750505050565b63ffffffff16156121d857600080516020614582833981519152805460ff60a01b1916600160a01b17905561216090610ea6908190546001600160a01b031690565b91823b156101c75761218c9260009283604051809681958294634a63ebf760e11b8452600484016120a0565b03925af18015610f4f576121bf575b50600080516020614582833981519152805460ff60a01b1916905538808080611cbc565b806121cc6121d292610241565b806101bc565b3861219b565b60405162d1953b60e31b81526001600160a01b0383166004820152602490fd5b60008051602061458283398151915280546001600160a01b0319166001600160a01b0390921691821790556040519081527f2f658b440c35314f52658ea8a740e05b284cdc84dc9ae01e891f21b8933e7cad90602090a1565b601154156123b0576011546007548101809111610f995742101561227157565b61228061172e60175460ff1690565b61236e5761229360ff1960175416601755565b61229e600954600a55565b6122a9600b54600c55565b6122c16122b46135b8565b6122bc613780565b6138d0565b6122cb6000600955565b6122d56000600b55565b6122de42601155565b61230f6122f36001546001600160401b031690565b6001600160401b03166001600160401b03196012541617601255565b61231a601454601555565b612325600054601655565b61233460ff1960175416601755565b61233e6000601455565b6102bd61235861235360085463ffffffff1690565b613925565b63ffffffff1663ffffffff196008541617600855565b61099e63ffffffff60001961238860085463ffffffff1690565b0116604051918291631c70a36560e21b83526004830191909163ffffffff6020820193169052565b42601155565b6040516123c281610254565b60008152906000368137565b906123d882610415565b6123e5604051918261026f565b82815280926123f6601f1991610415565b0190602036910137565b8015610f99576000190190565b6000198114610f995760010190565b600a5490600c5491801561252657612433836123ce565b9260005b8181106124fc5750905b600190818111806124f3575b156124e25780821682036124a8576124a09061248e61247461246e866117b5565b886119b8565b51612487612481876117b5565b896119b8565b519061393a565b61249a61246e866117b5565b5261240d565b905b1c612441565b9091806124ca6124bd61246e6124dc946117c4565b51612487612481846117b5565b6124d661246e836117c4565b52612400565b916124a2565b505050906124ef906119ab565b5190565b5081831161244d565b8061251561250b600193610841565b90549060031b1c90565b61251f82886119b8565b5201612437565b5060009150565b612535610c04565b61253d6131d3565b9260408051809560209485830161255391611efa565b61255c91611efa565b0394601f19958681018252612571908261026f565b845161257c90613a33565b90825191829186830161258e91611efa565b61259791611efa565b0386810182526125a7908261026f565b6125af6131c0565b9082519182918683016125c191611efa565b6125ca91611efa565b0386810182526125da908261026f565b838501516125e790613a83565b9081516125fa906001600160401b031690565b61260390613349565b90835191829187830161261591611efa565b61261e91611efa565b03878101825261262e908261026f565b825191829186830161263f91611efa565b61264891611efa565b038681018252612658908261026f565b6126606131e6565b90825191829186830161267291611efa565b61267b91611efa565b03868101825261268b908261026f565b848201516001600160401b03166126a190613349565b9082519182918683016126b391611efa565b6126bc91611efa565b0386810182526126cc908261026f565b6126d46131f9565b9082519182918683016126e691611efa565b6126ef91611efa565b0386810182526126ff908261026f565b60608501516127139063ffffffff16613349565b90825191829186830161272591611efa565b61272e91611efa565b03868101825261273e908261026f565b61274661320c565b90825191829186830161275891611efa565b61276191611efa565b038681018252612771908261026f565b60808501516127859063ffffffff16613349565b90825191829186830161279791611efa565b6127a091611efa565b0386810182526127b0908261026f565b6127b861321f565b9082519182918683016127ca91611efa565b6127d391611efa565b0386810182526127e3908261026f565b60a08501516127f190613a33565b90825191829186830161280391611efa565b61280c91611efa565b03868101825261281c908261026f565b612824613232565b90825191829186830161283691611efa565b61283f91611efa565b03868101825261284f908261026f565b60c085015161285d90613a33565b90825191829186830161286f91611efa565b61287891611efa565b038681018252612888908261026f565b612890613278565b9082519182918683016128a291611efa565b6128ab91611efa565b0386810182526128bb908261026f565b60e08501516128c990613a33565b9082519182918683016128db91611efa565b6128e491611efa565b0386810182526128f4908261026f565b6128fc613297565b90825191829186830161290e91611efa565b61291791611efa565b038681018252612927908261026f565b61010085015161293690613a33565b90825191829186830161294891611efa565b61295191611efa565b038681018252612961908261026f565b916000925b610120860180515185101561205b57611f446129ee610120936120456129b36129ad8a6001978f611ff9908f6129a18f611f44611fe06132b6565b0390810188528761026f565b51613bf2565b6129e08d8c61202b8c611f446129d3611f7e88516001600160401b031690565b9151988994850190611efa565b88519485938c850190611efa565b9401939050612966565b612a2190612a04613cf2565b612a0c613cf2565b612a14613cf2565b612a1c613cf2565b6121f8565b612a29613cf2565b612a31613cf2565b612a396123b6565b8051906001600160401b039182811161022157612a5581613614565b6020809201600d60005260005b828110612afb57505050612a746123b6565b805192831161022157602090612a8984613678565b0190600e60005260005b838110612ac957505050506102bd90612ab4600160ff196017541617601755565b612abc6137e4565b612ac461385a565b600755565b82517fbb7b4a454dc3493923482f07822329ed19e8244eff582cc204f8554c3620c3fd82015591810191600101612a93565b81517fd7b6990105719101dabeb77144f2a3385c8033acd3af97e9423a695e81ad1eb582015590830190600101612a62565b60025481101561086657600260005260011b7f405787fa12a823e0f2b7631cc41b3ba8828b3321ca811111fa75cd3aa3bb5ace0190600090565b9190601f8111612b7657505050565b6102bd926000526020600020906020601f840160051c83019310612ba2575b601f0160051c0190611bce565b9091508190612b95565b91909182516001600160401b03811161022157612bd381612bcd8454611842565b84612b67565b602080601f8311600114612c1657508190612c07939495600092612c0b575b50508160011b916000199060031b1c19161790565b9055565b015190503880612bf2565b90601f19831695612c2c85600052602060002090565b926000905b888210612c6957505083600195969710612c50575b505050811b019055565b015160001960f88460031b161c19169055388080612c46565b80600185968294968601518155019501930190612c31565b929190612d55578051835461ffff191661ffff91909116178355600180930190602080910151938451916001600160401b03831161022157612ccd83612cc78654611842565b86612b67565b602091601f8411600114612d015750508190612c07939495600092612c0b5750508160011b916000199060031b1c19161790565b95601f92919219841696612d1a86600052602060002090565b936000915b898310612d3e5750505083600195969710612c5057505050811b019055565b838501518655948501949381019391810191612d1f565b611bb8565b60025491600354808411600014612db057506102bd9250612d8960405192612d8184610206565b61ffff168352565b6020820152612daa600354612da5612da08261240d565b600355565b612b2d565b90612c81565b612db99061240d565b60035561ffff60405192612dcc84610206565b1682526020820152600160401b82101561022157612daa8260016102bd9401600255612b2d565b90612dfd82610415565b6040612e0c604051928361026f565b8382528193612e1d601f1991610415565b019160009060005b848110612e33575050505050565b6020908451612e4181610226565b848152828581830152606087830152828501015201612e25565b90604051612e6881610206565b60206103516001839561ffff81541685520161187c565b81518051825460ff191660ff9190911617825560200151602080600184549464ffffffff0095869564ffffffff001996879160081b16911617815501940151612ed660ff825116869060ff1660ff19825416179055565b01519183549260081b169116179055565b8151815463ffffffff191663ffffffff919091161781556001809101916020809101519080825192612f198487611c2e565b0190600094855280852085925b848410612f365750505050505050565b8051805183548583015165ffffffff000060109190911b1661ffff90921665ffffffffffff19909116171783556040015180519187840191906001600160401b03841161022157828692612f8f86612bcd8d9754611842565b83908c601f8811600114612fd15796612fc29281926002989992612c0b5750508160011b916000199060031b1c19161790565b90555b01920193019290612f26565b969190601f198316612fe885600052602060002090565b985b8181106130285750918798918460029995941061300f575b505050811b019055612fc5565b015160001960f88460031b161c19169055388080613002565b838301518a5597909801978d978b979384019301612fea565b601854600160401b811015610221578060016130609201601855611807565b612d5557600960208361316c60e06102bd965161307e815188612e7f565b61308e8582015160028901612bac565b61309f604082015160038901612bac565b6130ed6060820151600489018151815460ff191660ff91909116178155906020810151825460409092015162ffff001990921660089190911b61ff00161760109190911b62ff000016179055565b61311a613101608083015163ffffffff1690565b600589019063ffffffff1663ffffffff19825416179055565b61312b60a082015160068901612bac565b61316161314260c08301516001600160401b031690565b60078901906001600160401b03166001600160401b0319825416179055565b015160088601612bac565b01519101612ee7565b6040519061318282610206565b6001825260203681840137565b6040519061319c82610206565b600a825260203681840137565b6131b1613175565b60086131bc826119ab565b5390565b6131c8613175565b60126131bc826119ab565b6131db613175565b600a6131bc826119ab565b6131ee613175565b60286131bc826119ab565b613201613175565b60306131bc826119ab565b613214613175565b60386131bc826119ab565b613227613175565b607a6131bc826119ab565b61323a61318f565b60a260005b607f808311156132645790608060019284161760208286010153019060071c9061323f565b50607f600192166020828501015301815290565b61328061318f565b60f260016000826020850153019060071c9061323f565b61329f61318f565b60fa60016000826020850153019060071c9061323f565b6132be61318f565b6101426001600060c26020850153019060071c9061323f565b6132df613175565b60106131bc826119ab565b6132f2613175565b601a6131bc826119ab565b613305613175565b60226131bc826119ab565b613318613175565b60326131bc826119ab565b61332b613175565b60426131bc826119ab565b61333e613175565b60186131bc826119ab565b9060809160806001600160401b038216106133a55761336661318f565b60005b607f8084111561338d57908560019285161760208285010153019160071c91613369565b5090929350607f600192166020828501015301815290565b9091506133b0613175565b9060f81b6001600160f81b03191660001a6131bc826119ab565b6106a961340b611f44926134c36134af611f446134b66133e8610c04565b946133f16131a9565b9060409485928351998a91611f4460209b8c850190611efa565b039861341f601f199a8b810183528261026f565b61345e89613452613442611f7e61343b61343b895161ffff1690565b61ffff1690565b611f448851958694850190611efa565b038b810183528261026f565b61346d896134526134426132d7565b61348a89613452613442611f7e611f758489015163ffffffff1690565b6134a36134956132ea565b85519d8e938c850190611efa565b038981018c528b61026f565b0151613a33565b9151968794850190611efa565b0390810183528261026f565b60405163b700961360e01b602082019081526001600160a01b0393841660248301529290931660448401526001600160e01b03199093166064808401919091528252600093849390928492909160a08301916001600160401b0383118484101761022157604093859385528380528360205251915afa61354c5750565b9150915051906020518060201c150290565b6001600160a01b037f0000000000000000000000000000000000000000000000000000000000000000811630811491821561359c575b5050610a6757565b6000805160206145a28339815191525416141590503880613594565b6040519060105480835282602091602082019060106000526000805160206145c2833981519152936000905b8282106135fa575050506102bd9250038361026f565b8554845260019586019588955093810193909101906135e4565b600160401b811161022157600d549080600d55818110613632575050565b600090600d6000527fd7b6990105719101dabeb77144f2a3385c8033acd3af97e9423a695e81ad1eb592830192015b82811061366d57505050565b818155600101613661565b600160401b811161022157600e549080600e55818110613696575050565b600090600e6000527fbb7b4a454dc3493923482f07822329ed19e8244eff582cc204f8554c3620c3fd92830192015b8281106136d157505050565b8181556001016136c5565b600160401b81116102215760105490806010558181106136fa575050565b60009060106000526000805160206145c283398151915292830192015b82811061372357505050565b818155600101613717565b600160401b811161022157600f549080600f5581811061374c575050565b600090600f60005260008051602061460283398151915292830192015b82811061377557505050565b818155600101613769565b600f546001600160401b0381116102215761379a816136dc565b6010600090815260008051602061460283398151915280545b8383106137c05750505050565b60018091920192835492816000805160206145c283398151915201550191906137b3565b600d546001600160401b038111610221576137fe8161372e565b600f60009081527fd7b6990105719101dabeb77144f2a3385c8033acd3af97e9423a695e81ad1eb580545b8383106138365750505050565b60018091920192835492816000805160206146028339815191520155019190613829565b600e546001600160401b03811161022157613874816136dc565b601060009081527fbb7b4a454dc3493923482f07822329ed19e8244eff582cc204f8554c3620c3fd80545b8383106138ac5750505050565b60018091920192835492816000805160206145c2833981519152015501919061389f565b8051906001600160401b038211610221576138ea8261372e565b602080910190600f60005260005b8381106139055750505050565b8251600080516020614602833981519152820155918101916001016138f8565b90600163ffffffff80931601918211610f9957565b6040516334509dd160e01b8152600481019190915273__$398d4f030862acab53d338aebf0b4256d7$__916020908183602481875af4928315610f4f57600093613a0e575b506040516333aec0ad60e21b815260048101919091529192819083908180602481015b03915af4918215610f4f576000926139eb575b506139e5906139d7604051938492830195869091604092825260208201520190565b03601f19810183528261026f565b51902090565b819250613a07906139e5923d8511610a07576109f8818361026f565b91906139b5565b6139a2935090613a2b8392833d8511610a07576109f8818361026f565b93509061397f565b6106a96020613a4b6001600160401b03845116613349565b6040519381613a638693518092868087019101610594565b8201613a7782518093868085019101610594565b0103808452018261026f565b613a8b610c04565b90613a946131d3565b6040805193846020938492838301613aab91611efa565b613ab491611efa565b0393601f19948581018752613ac9908761026f565b8051613ad490613ed0565b958651613ae7906001600160401b031690565b613af090613349565b908451918291858301613b0291611efa565b613b0b91611efa565b038681018252613b1b908261026f565b8351968791848301613b2c91611efa565b613b3591611efa565b038581018752613b45908761026f565b613b4d6131c0565b958351968791848301613b5f91611efa565b613b6891611efa565b038581018752613b78908761026f565b0151613b8390613ed0565b908151613b96906001600160401b031690565b613b9f90613349565b948151958691858301613bb191611efa565b613bba91611efa565b038481018652613bca908661026f565b519384928301613bd991611efa565b613be291611efa565b0390810182526106a9908261026f565b613bfa610c04565b90613c036131d3565b6040805193846020938492838301613c1a91611efa565b613c2391611efa565b0393601f19948581018752613c38908761026f565b8051613c4390613f88565b958651613c56906001600160401b031690565b613c5f90613349565b908451918291858301613c7191611efa565b613c7a91611efa565b038681018252613c8a908261026f565b8351968791848301613c9b91611efa565b613ca491611efa565b038581018752613cb4908761026f565b613cbc6131c0565b958351968791848301613cce91611efa565b613cd791611efa565b038581018752613ce7908761026f565b0151613b8390611f11565b60ff6000805160206145e28339815191525460401c1615613d0f57565b604051631afcd79f60e31b8152600490fd5b90613d2a612251565b60145415613e23575b816000556001600160401b03600191166001600160401b03196001541617600155613d5f60095461240d565b613d6881600955565b90613d74600b5461240d565b92600f54613d81856117b5565b1015613e1257613db590613d9c613d97866117b5565b61086b565b90919082549060031b91821b91600019901b1916179055565b9190915b80831615613dc85750600b5550565b9080613e03613df7613de261250b613d97613e08966117c4565b613df161250b613d97866117b5565b9061393a565b613d9c613d97846117c4565b612400565b91811c9190613db9565b613e1b90614374565b919091613db9565b81601455613d33565b90813b15613eaf576000805160206145a283398151915280546001600160a01b0319166001600160a01b0384169081179091557fbc7cd75a20ee27fd9adebab32041f755214dbc6bffa90cc0225b39da2e5c2d3b600080a2805115613e9457611ecd916143aa565b505034613e9d57565b60405163b398979f60e01b8152600490fd5b604051634c9c8ce360e01b81526001600160a01b0383166004820152602490fd5b6106a9611f44611f446134c3613f78611f7e611f756020611f4498613f6d611f44613f47613efc610c04565b613f16613f076131a9565b6040519d8e9389850190611efa565b039a613f2a601f199c8d810183528261026f565b613452611f83611f7e613f41613f41895160ff1690565b60ff1690565b613f61613f526132d7565b6040519a8b9387850190611efa565b0389810189528861026f565b015163ffffffff1690565b6040519586936020850190611efa565b613f90610c04565b90613f996131d3565b91604080518094602093848301613faf91611efa565b613fb891611efa565b0392601f19938481018652613fcd908661026f565b8051613fd890613a83565b948551613feb906001600160401b031690565b613ff490613349565b90835191829186830161400691611efa565b61400f91611efa565b03858101825261401f908261026f565b825195869185830161403091611efa565b61403991611efa565b038481018652614049908661026f565b6140516131c0565b94825195869185830161406391611efa565b61406c91611efa565b03848101865261407c908661026f565b8281015161408990613a33565b94825195869185830161409b91611efa565b6140a491611efa565b0384810186526140b4908661026f565b6140bc6132ea565b9482519586918583016140ce91611efa565b6140d791611efa565b0384810186526140e7908661026f565b818101516140f490613a33565b94825195869185830161410691611efa565b61410f91611efa565b03848101865261411f908661026f565b6141276132fd565b94825195869185830161413991611efa565b61414291611efa565b038481018652614152908661026f565b6060810151614160906143f0565b948551614173906001600160401b031690565b61417c90613349565b90835191829186830161418e91611efa565b61419791611efa565b0385810182526141a7908261026f565b82519586918583016141b891611efa565b6141c191611efa565b0384810186526141d1908661026f565b6141d96131e6565b9482519586918583016141eb91611efa565b6141f491611efa565b038481018652614204908661026f565b60808101516142189063ffffffff16613349565b94825195869185830161422a91611efa565b61423391611efa565b038481018652614243908661026f565b61424b613310565b94825195869185830161425d91611efa565b61426691611efa565b038481018652614276908661026f565b60a081015161428490613a33565b94825195869185830161429691611efa565b61429f91611efa565b0384810186526142af908661026f565b6142b761320c565b9482519586918583016142c991611efa565b6142d291611efa565b0384810186526142e2908661026f565b60c08101516001600160401b03166142f990613349565b94825195869185830161430b91611efa565b61431491611efa565b038481018652614324908661026f565b61432c613323565b94825195869185830161433e91611efa565b61434791611efa565b038481018652614357908661026f565b60e0015161436490613a33565b90519384928301613bd991611efa565b600f54600160401b811015610221576001810180600f5581101561086657600f6000526000805160206146028339815191520155565b6000806106a993602081519101845af43d156143e8573d916143cb83610356565b926143d9604051948561026f565b83523d6000602085013e61451e565b60609161451e565b6143f8610c04565b906144016131a9565b916040808051809560209485830161441891611efa565b61442191611efa565b0393601f19948581018752614436908761026f565b80516144449060ff16613349565b95825196879186830161445691611efa565b61445f91611efa565b03858101875261446f908761026f565b6144776132d7565b95825196879186830161448991611efa565b61449291611efa565b0385810187526144a2908761026f565b838101516144b29060ff16613349565b9582519687918683016144c491611efa565b6144cd91611efa565b0385810187526144dd908761026f565b6144e5613336565b9582519687918683016144f791611efa565b61450091611efa565b038581018752614510908761026f565b01516143649060ff16613349565b90614545575080511561453357602081519101fd5b60405163d6bda27560e01b8152600490fd5b81511580614578575b614556575090565b604051639996b31560e01b81526001600160a01b039091166004820152602490fd5b50803b1561454e56fef3177357ab46d8af007ab3fdb9af81da189e1068fefdc0073dca88a2cab40a00360894a13ba1a3210667c828492db98dca3e2076cc3735a920a3ca505d382bbc1b6847dc741a1b0cd08d278845f9d819d87b734759afb55fe2de5cb82a9ae672f0c57e16840df040f15088dc2f81fe391c3923bec73e23a9662efc9c229c6a008d1108e10bcb7c27dddfc02ed9d693a074039d026cf4ea4240b40f7d581ac802a2646970667358221220305069e1de09e0b83f870a665df49a0020cfebdc7facb5713cd273efb122364164736f6c63430008190033",
  "linkReferences": {
    "contracts/common/sysio_merkle.sol": {
      "sysio_merkle": [
        {
          "length": 20,
          "start": 14720
        }
      ]
    },
    "contracts/outpost/OPPCommon.sol": {
      "OPPCommon": [
        {
          "length": 20,
          "start": 5087
        }
      ]
    }
  },
  "deployedLinkReferences": {
    "contracts/common/sysio_merkle.sol": {
      "sysio_merkle": [
        {
          "length": 20,
          "start": 14673
        }
      ]
    },
    "contracts/outpost/OPPCommon.sol": {
      "OPPCommon": [
        {
          "length": 20,
          "start": 5040
        }
      ]
    }
  }
}